:1000000000800020BD010000A12F00005D2F000036
:100010005D2F00005D2F00005D2F00005D2F0000B0
:100020005D2F00005D2F00005D2F0000A12F00005C
:10003000A12F00005D2F0000B9410000BD4100006C
:10004000A12F0000A12F0000A12F0000A12F000070
:10005000A12F0000A12F0000A12F0000A12F000060
:10006000A12F0000A12F0000A12F0000A12F000050
:10007000A12F0000A12F0000A12F0000A12F000040
:10008000A12F0000A12F0000A12F0000A12F000030
:10009000A12F0000A12F0000A12F0000A12F000020
:1000A000FD490000094A0000A12F0000A12F000017
:1000B000A12F0000A12F0000A12F0000A12F000000
:1000C000A12F0000A12F0000A12F0000A12F0000F0
:1000D000A12F0000A12F0000A12F0000A12F0000E0
:1000E000A12F0000A12F0000A12F0000A12F0000D0
:1000F000A12F0000A12F0000A12F0000A12F0000C0
:10010000A12F0000A12F0000A12F0000A12F0000AF
:10011000A12F0000A12F0000A12F0000A12F00009F
:10012000A12F0000A12F0000A12F0000A12F00008F
:10013000A12F0000A12F0000A12F0000A12F00007F
:10014000A12F0000A12F0000A12F0000A12F00006F
:10015000A12F0000A12F0000A12F0000A12F00005F
:10016000A12F0000E9340000A12F0000A12F000002
:10017000A12F0000A12F0000A12F0000A12F00003F
:10018000A12F0000A12F0000A12F0000A12F00002F
:10019000A12F0000A12F0000A12F0000A12F00001F
:1001A000A12F0000A12F0000A12F0000A12F00000F
:1001B000A12F0000A12F0000A12F0000574B4CF2EF
:1001C000205210B5DA814DF62812DA8100BF00BF47
:1001D00002F0EAFE524B4FF010621A63514A9A63E2
:1001E000514ADA63514A136913F4807303D153619E
:1001F0004FF4A85313614E4B9A78110703D59A78A0
:1002000042F008029A704B4B4B482A221A704B4B13
:10021000DA1C121AC11E22F00302994288BF002282
:10022000474902F0C7FD474B4748DA1C121AC11E66
:1002300022F00302994288BF0022002106F070FFDD
:10024000424943484FF4DE7202F0B4FD414B424A4A
:10025000802103F8011B9342FBD14FF0E0233C4A7D
:10026000C3F8082D3D4B8A221A70A3F5805324222F
:100270005A70A0221A709A799207FCD59A79D406FE
:10028000FCD4374B9A7902F00C02082AFAD10522E5
:100290001A7143225A719A799006FCD5304A9379A3
:1002A0005906FCD51E4B4FF08171596405219964A4
:1002B00020211170917901F00C010C29FAD1294A01
:1002C0005A604FF0E023284A5A6100229A610722BF
:1002D0001A61264AC3F8202D62B602F095FF134B2F
:1002E0005B69DA0705D5224802F082FF214B224ADA
:1002F000DA61224B1B785B0609D51E4C1E4BE26966
:100300009A4204D11A4802F073FF0023E36102F01D
:1003100051FE07F041F802F045FDFEE700200540E0
:1003200000800440823F04000100002B00D0034005
:1003300000D0074000E00740209BFF1FF8A5FF1FEB
:10034000F8A9010054AEFF1FF8A5FF1F0000000030
:100350000096FF1F00E400E05FE400E0005006406C
:1003600000400640C01005003F1901000000202099
:100370004104C56900E00340A5C3945A00F007405A
:10038000FFFFFFFFFFFFFFFFFFFFFFFFFFFFFFFF7D
:10039000FFFFFFFFFFFFFFFFFFFFFFFFFFFFFFFF6D
:1003A000FFFFFFFFFFFFFFFFFFFFFFFFFFFFFFFF5D
:1003B000FFFFFFFFFFFFFFFFFFFFFFFFFFFFFFFF4D
:1003C000FFFFFFFFFFFFFFFFFFFFFFFFFFFFFFFF3D
:1003D000FFFFFFFFFFFFFFFFFFFFFFFFFFFFFFFF2D
:1003E000FFFFFFFFFFFFFFFFFFFFFFFFFFFFFFFF1D
:1003F000FFFFFFFFFFFFFFFFFFFFFFFFFFFFFFFF0D
:10040000FFFFFFFFFFFFFFFFFFFFFFFFDEF9FFFF23
:100410000548064B1B1AD90F01EBA301491002D066
:10042000034B03B118477047F8A5FF1FF8A5FF1F3E
:100430000000000008B5054B1BB105490548AFF3A6
:100440000080BDE80840FFF7E3BF00BF00000000E8
:10045000F8A5FF1FF0A9010070B5214802F016FBB6
:100460001F4802F003FB08B31E491F4B0A681B68B4
:100470001360938B1D4823F020031B046FF00304CB
:100480001B0C9383D4600123194C03700A79531118
:1004900003F1382380339B00012102F01F0201FA8F
:1004A00002F21A60134B2279DA7770BD0C48104CB7
:1004B00002F008FB104B114A1B680A4915680A68CC
:1004C00003EBC0131E1D2E6013600D4A0D4BB2F8D6
:1004D00000C01B68226800FB0C331360D6E700BF26
:1004E000DCA9FF1F00AAFF1F14A6FF1F34A6FF1FD1
:1004F000E8A9FF1F0080004020A6FF1FF8A9FF1FEA
:100500002AA6FF1F24A6FF1F90F8A83003B9704742
:10051000C289038A416910B5D20803FB02F204467E
:10052000881802F047FC002384F8A83010BD00BFF3
:100530002DE9F04F85B0013B0546039191460093AC
:100540004FF0000A009B13F801BF0093BBF1000FAE
:1005500068D0D5F8AC20D5F88810137803980978BE
:1005600013FB0AF303441EB2F1429BB2019354D42D
:10057000EB899E4251DA5378002B4ED006F00707E4
:10058000C7F108034FEAE6084C46029321E0EB89E5
:100590006969DB0804FB0383CA5C42EA0E02CA54A1
:1005A000EB899C450EDA029A9040019ADB085207CB
:1005B00004FB038318BF6A6903F101031EBFD15C0A
:1005C0000843D054D5F8AC20537801344B449C42B6
:1005D00023DAA4EB0901002CC9B25846F4DB2B8ABC
:1005E000A3421ADD02F0B4FA7342C0B2002E06F143
:1005F000080C40FA07FE00FA03F3C8DAEA896969D1
:10060000D20804FB02F20134885C03438B54D5F812
:10061000AC2053784B449C42DBDB0AF1010ABAF16F
:100620000A0F8FD105B0BDE8F08F00BF2DE9F0476C
:10063000022982B027D0254B0B4413F8019C4C466D
:10064000A9F1060800F14E05EDB2CFB24FF4402AF1
:10065000E6B268468DF806508DF805708DF8046096
:10066000CDF800A001F03EFF6A4601F079FE9DF84A
:100670000330012B04F1FF3423D04445E8DA484627
:1006800002B0BDE8F08783070DD1114C114B124A1F
:1006900004FB0033B2EBB30F05D24FF01D094FF04E
:1006A00017084C46CEE70A4C0A4B0C4A04FB0033B1
:1006B000B2EB331FBFD34FF01D094FF017084C4664
:1006C000C0E7B146484602B0BDE8F087D40101005A
:1006D000295C8FC250B81E05285C8F020AD7A30080
:1006E0004179CB1E072B1DD80B1F052B01D80120EC
:1006F000704710B50446807900F2B270FFF796FF9C
:100700006379032B237908D0834209D30CD8A078CE
:1007100002288CBF0020012010BD834204D305D9DC
:10072000012010BD00207047002010BDA0780128D6
:1007300094BF0020012010BD70B5002304460A229A
:100740000D468178294802F023FB3A2003F018FC7B
:100750006678092E42DD3146244802F0F9FA3A2043
:1007600003F00EFC2678092E3CDD31461F4802F0CE
:10077000EFFA202003F004FC21791C4800230A2210
:1007800002F006FB2E2003F0FBFB0A220023617916
:10079000164802F0FDFA2E2003F0F2FBA17913486F
:1007A00001F2B27102F0D4FA202003F0E9FB104B01
:1007B00010480621002D08BF184603F05DFB0621F6
:1007C0000D4803F059FBE178084800230A2202F0A3
:1007D000DFFABDE87040054802F0C2BA302003F0ED
:1007E000CFFBB8E7302003F0CBFBBEE7149DFF1F23
:1007F00050FE000048FE000058FE000038B50446D8
:100800000421224803F038FBA178214800230A2262
:1008100002F0BEFA3A2003F0B3FB6578092D2DDD16
:1008200029461B4802F094FA3A2003F0A9FB2578E8
:10083000092D27DD2946164802F08AFA202003F008
:100840009FFB2179124800230A2202F0A1FA2E20F0
:1008500003F096FB61790E4800230A2202F098FA11
:100860002E2003F08DFBA179094801F2B27102F04C
:100870006FFABDE83840064802F072BA302003F043
:100880007FFBCDE7302003F07BFBD3E760FE000069
:10089000149DFF1F2DE9F84307460E462A48DDF850
:1008A0002090DDF824800C2115461C4603F0E4FA64
:1008B0003946264802F04CFA2D2003F061FB092E40
:1008C0002EDD3146214802F043FA2D2003F058FB7B
:1008D000092D35DD29461D4802F03AFA202003F0A3
:1008E0004FFB092C28DD2146184802F031FA3A2046
:1008F00003F046FBB9F1090F1ADD4946134802F02F
:1009000027FA3A2003F03CFBB8F1090F0CDD414611
:100910000E4802F01DFABDE8F8430C4802F020BA78
:10092000302003F02DFBCCE7302003F029FBEEE76D
:10093000302003F025FBE0E7302003F021FBD2E775
:10094000302003F01DFBC5E768FE0000149DFF1F6B
:10095000A0F5FA60632810D801390B290DD8013AA7
:100960001E2A0AD8172B08D8009B3B2B05D8019BC1
:100970003B2B8CBF0020012070470020704700BF38
:100980002DE9F04F8FB00BAB03930AAB029309AB89
:10099000019308AB002400930D461746484907AB66
:1009A00006AACDE90644CDE90844CDE90A44064645
:1009B00006F0C8FA062861D1DDE90681DDE9082BD9
:1009C000DDF828A0DDF82C90CDF800A0CDF804903B
:1009D0005B46404605920491FFF7BAFF0499059AD9
:1009E000064600283FD008F14E080CA88DF83420A8
:1009F0008DF833408DF835108DF832B08DF831A078
:100A00008DF836808DF8309001F06CFD02460B4673
:100A1000C7E900232A4601F0A3FCAB79069A03F24A
:100A2000B273934213D16A79079B9A420FD12A7904
:100A3000089B9A420BD1AA78099B9A4207D16A78FF
:100A40000A9B9A4203D12A780B9B9A4212D0152115
:100A50001C4803F011FA1C4802F082F900263046C7
:100A60000FB0BDE8F08F1948182103F005FA1648B9
:100A700002F076F930460FB0BDE8F08F14480B2134
:100A800003F0FAF936B1304606F03AFE0146304638
:100A900003F0F2F95D2003F073FA0B4802F060F9FD
:100AA0001E210C4803F0E8F91B210B4803F0E4F980
:100AB000054802F055F9002630460FB0BDE8F08F2A
:100AC00078FE0000D4FE0000149DFF1FB8FE000059
:100AD0008CFE000098FE0000B801010070B53E4C8D
:100AE0003E4D3F4E86B003F095F9002817DD03F028
:100AF00055F92378C0B2A0F12002A3B10A284FD043
:100B00000D2814D05E2AEED82B781E2B03F101029B
:100B100033D8F0542A7003F07DF90028E7DC002474
:100B2000204606B070BD0D283DD00A28EAD12B4AD8
:100B30002B48117823700023435413700278002A45
:100B4000EDD00024002504AA02A9CDE904450293B2
:100B5000ADF80C308DF80E30FFF712FF0028DED014
:100B600002A801F0A3FE0446F8B917211D4803F0BE
:100B700083F91D4802F0F4F8D2E700232B7003E05C
:100B800003F00CF90A2803D003F044F90028F7DC3D
:100B90000E21164803F070F9134802F0E1F8BEE7A1
:100BA000002323709FE70123C1E7DDE9040101F081
:100BB00065FD9DF80E009DF808109DF80920019133
:100BC00000929DF80A309DF80C209DF80D1000F25F
:100BD000B270FFF75FFEA3E77CA9FF1F7DA9FF1F8F
:100BE00080A9FF1FECFE0000149DFF1F04FF000002
:100BF00030B5194C194DE389228A1948DB0803FBEB
:100C000002F2F5232B600125002183B00570606995
:100C100006F086FA052001F0ADFF124BC4F8AC00D7
:100C20000A220021204684F89450FFF781FC94F8B2
:100C3000A830002BFBD101230B4A84F8A83013689D
:100C40000093009841F2873113680193019B1B1AAE
:100C50008B42F9D903B030BDC4A7FF1F30A6FF1FD8
:100C600035A6FF1FB00101000CAAFF1F08B50848F8
:100C700001F02EFD01F024FD02280CBF05480648B6
:100C80001B2103F0F9F8BDE80840044802F068B8F9
:100C9000F929000014FF000030FF0000149DFF1F21
:100CA00010B50F4C23782BB90E4B1B68C01AB0F54A
:100CB000FA6F00D210BD0F210B4803F0DDF81B21A5
:100CC0000A4803F0D9F80A4802F04AF81C210948FA
:100CD00003F0D2F8064802F043F80123237010BD58
:100CE000ACA9FF1FA8A9FF1F4CFF0000B80101001D
:100CF000149DFF1F5CFF0000F0B58378424C0B444D
:100D0000A4FB0324240904EB4404A3EBC404A4F1CE
:100D10000803DBB20C2B3D4B34BFF522FF221A60D7
:100D20003B4B3C4A93B001271F7043780093064623
:100D30000D462346102102A806F0C0F8364B5A781B
:100D400000929B78354A102106A806F0B7F873790F
:100D500000933379324A10210AA806F0AFF8314BDC
:100D6000314A002D08BF134693E80300092CADF863
:100D70003C104FEA11410E908DF83E104FF00500E7
:100D800033DC01F0F7FE294C02ABC4F8AC000022C2
:100D90000321204684F89470FFF7CAFB002001F07D
:100DA000E9FE01230D2284F89430C4F8AC0006ABB0
:100DB0001E480621FFF7BCFB1C480AAB1322062184
:100DC000FFF7B6FB19480EAB1A220421FFF7B0FB60
:100DD00094F8A830002BFBD1012384F8A83094F8B4
:100DE000A830002BFBD113B0F0BD01F0C3FE0F4CB7
:100DF00002ABC4F8AC0039460022204684F8947057
:100E0000FFF796FBCAE700BFABAAAAAA30A6FF1F4E
:100E100035A6FF1F7CFF0000B8A9FF1F84FF00005C
:100E200090FF000048FE000050FE0000C4A7FF1F16
:100E300010B5214B82B01B680193019C2046FFF73F
:100E40002FFF02F0E7FF002801DDFFF747FE1B4AF6
:100E50001368E31AB3F57A7F01D202B010BD184BC4
:100E60001460DA89198A5869D20801FB02F200215C
:100E700006F056F9134801F0F7FC0028EDD01148B0
:100E8000114C01F02FFBB0F5616061F100010F4AD8
:100E900001F066FA0B48FFF723FC01460948217070
:100EA000FFF74AFC0948FFF7A9FC2178054802B082
:100EB000BDE81040FFF720BF0CAAFF1FA0A9FF1F2D
:100EC000C4A7FF1FB0A9FF1F2B9CFF1FB8A9FF1FBE
:100ED000F0B5214B214C1B78B4FBF3F460110A30C0
:100EE00080B224110A3880B20F22002140FA02F3A6
:100EF00007339BB2013ABC2B2CBFC918BC31531C21
:100F0000F4D18C42EED3164A164BD2F800C01D68BD
:100F1000DFF854E000210CF10204C1F10F0240FAA5
:100F200002F205FB02F38EFB03761E440732DB1749
:100F3000C3EBE61392B20733BB2A9BB204D8C2F1CB
:100F4000BC0213449BB2BC2224F821202CF821308F
:100F500001311029E1D1F0BD299CFF1F80A81201A9
:100F600018A6FF1F30A6FF1F818080802DE9F04F5B
:100F700085B000230393354801F070FD80460028BA
:100F800040F07082039B0133DBB2062B039300F029
:100F90006C822F4B1C78002C00F072822D4D2E4B52
:100FA0002A481B6803EB840233F82490568801F02A
:100FB00063FD2A4B2A4AD3F800C01268C7B202EB7D
:100FC000C71200230CF10200A2F80490D68030F87A
:100FD000231051803CF8231022F8081B0133102BFA
:100FE000F2D120480668BFF35B8F16F0010600F0CF
:100FF0009B821D480668BFF35B8F16F0010600F068
:101000008182C0220021194806F08AF81848C022BF
:10101000002106F085F82B68D3F800A0BAF1000F84
:1010200040F04F8252465646554654465346514626
:101030001048DFF844A00088DFF8409007FB00F07C
:10104000800802900E480068019027E0DCA9FF1F8D
:10105000C0A7FF1F10A6FF1F1CA6FF1F18A6FF1F7B
:1010600020A6FF1FFCA6FF1F38A6FF1F00A7FF1F1B
:101070003CA6FF1F2AA6FF1F06A7FF1F42A6FF1FB1
:1010800024A6FF1F3AF8061C3AF8043C3AF8024C32
:1010900039F8065C39F8046C39F8022C06F00100C6
:1010A00001F00107C6F3001C47EA8007C1F30010F6
:1010B00040EA8C00C1F3002EC6F3002CC6F3003BBF
:1010C0004EEA8C0EC1F3003C4CEA8B0C04F0010B91
:1010D00047EA0B1704F0100B40EA0B00C4F3002B97
:1010E0004EEA0B1EC4F3003B4CEA0B1C02F0010B52
:1010F00047EA4B17C2F3001B40EA4B10C2F3002B28
:101100004EEA4B1EC2F3003B4CEA4B1C05F0010BB0
:1011100047EA8B17C5F3001B40EA8B1BC5F3002081
:101120004EEA801EC5F300304CEA801003F0010C3B
:1011300047EACC1CC3F300174BEAC71BC3F30027D5
:101140004EEAC717C3F3003E40EACE1EC1F340008B
:101150004CEA002CC1F340104BEA0020C1F3402BB5
:1011600047EA0B2BC1F340374EEA072EC6F3400780
:101170004CEA8727C6F3401C40EA8C2CC6F340207B
:101180004BEA802BC6F340304EEA8020C4F3400E79
:1011900047EA0E3EC4F340174CEA073CC4F340272D
:1011A0004BEA0737C4F3403B40EA0B3BC2F3400035
:1011B0004EEA403EC2F340104CEA4030C2F3402CAD
:1011C00047EA4C3C02F400574BEA070BC5F34007D3
:1011D0004EEA8737C5F3401E40EA8E3EC5F34020F5
:1011E0004CEA803CC5F340304BEA8030C3F3400BFF
:1011F00047EACB3BC3F340174EEAC73EC3F3402751
:101200004CEAC737C3F3403C40EACC3CC1F3800012
:101210004BEA004BC1F380104EEA0040C1F3802E30
:1012200047EA0E4EC1F380374CEA074CC6F38007FD
:101230004BEA8747C6F3801B40EA8B4BC6F38020FE
:101240004EEA804EC6F380304CEA8040C4F3800CF6
:1012500047EA0C5CC4F380174BEA075BC4F38027B2
:101260004EEA0757C4F3803E40EA0E5EC2F38000A8
:101270004CEA405CC2F380104BEA4050C2F3802B32
:1012800047EA4B5BC2F380374EEA475EC5F38007FF
:101290004CEA8757C5F3801C40EA8C5CC5F380207C
:1012A0004BEA805BC5F380304EEA8050C3F3800E7A
:1012B00047EACE5EC3F380174CEAC75CC3F38027CE
:1012C0004BEAC757C3F3803B40EACB5BC1F3C00096
:1012D0004EEA006EC1F3C0104CEA006CC1F3C020AE
:1012E00047EA0060C6F3C0074EEA8767C90BC6F33A
:1012F000C01E4BEA01614CEA8E6CC6F3C02EF60BA1
:1013000041EA8666A849097840EA8E60DDF808E07F
:1013100008FB01F10EEB9101C4F3C00E47EA0E7E0B
:10132000C4F3C0174CEA077CC4F3C02740EA077037
:10133000E40BC2F3C01746EA04744CEA477CC2F3DC
:10134000C006C2F3C027D20B4EEA467644EA427E7C
:10135000C5F3C00446EA8474DE0844EAC674019EFC
:1013600046F8214006EB810140EA477744F0023419
:10137000C5F3C0104CEA80700C61DC0940EAC4700F
:10138000C5F3C0224860ED0B40F0023047EA82729C
:101390004EEA85754861D80ADB0B42EAC07245EA1D
:1013A000C37508F101088A60CD6042F0023245F051
:1013B0000235B8F1200F0AF1060A09F106098A611F
:1013C000CD617FF45FAE7948794D01F06BFB794ACE
:1013D00013780133DBB20F2B89BF764B13700022D9
:1013E0001A702B78002B3FF4C6AD734B1B78092B7A
:1013F00000F2AC80714C6D48714F0126266001F0FF
:1014000061FB704A704B1188704A1B6812683F6814
:1014100003EBC01300FB01216D4A6E48126800689F
:1014200003F1040CC7F800C013600160938B6A4F8E
:1014300023F080031B041B0C9383938B3E709BB2A1
:101440004FF0040C43F02003002009219383C2F8DD
:101450000CC028705548216001F000FB8046002830
:101460003FF490AD05B0BDE8F08F534B1B78092BCE
:1014700077D8504BCDF80C801C78002C7FF48EADC3
:10148000564F574D3B78002B7CD12B681E68554C2E
:1014900076B12378304623B13368474ADB68117848
:1014A0009847336830461B6898477668002EF0D11D
:1014B0004D4E337800272770002B5FD13D4B1C78B1
:1014C0006DE5A6B210342346484DDFF8249154460A
:1014D0009A46236820465B682A4631469847236827
:1014E00020465B684A46514698476468002CF0D114
:1014F00029886B88AC88B9F80260B9F80050B9F84F
:10150000042095E501F080FD00283FF47AAD384BCA
:1015100003F1C0021E805E809E8006339A42F9D19C
:10152000344801F077FD6CE501F06EFD00283FF4D2
:1015300060AD2E4B03F1C0021E805E809E8006339C
:101540009A42F9D12C4801F065FD52E51A4A254C22
:10155000013B1370FFF7BCFC284A01231370237072
:1015600048E7154A1F4C013B1370FFF7B1FC234AB3
:10157000CDF80C800123137023700AE5FFF7A8FC57
:1015800037709BE72B681C685CB11D4E3178204694
:1015900001F09AFA6468002CF8D12B681E683C7040
:1015A00075E73C700F4C83E72CA6FF1FDCA9FF1FDB
:1015B00034A6FF1FC0A7FF1F299CFF1F00900340F8
:1015C000F8A9FF1F2AA6FF1F20A6FF1F24A6FF1FA2
:1015D00000AAFF1FE8A9FF1F29A6FF1F2A9CFF1FC3
:1015E00010A6FF1F289CFF1F35A6FF1F00A7FF1F87
:1015F0003CA6FF1F38A6FF1FFCA6FF1F28A6FF1F43
:101600002EA6FF1F2DE9F04F012187B00D2001F01C
:1016100073FE5C4B5C4C1D685C4EDFF8748140F2DD
:10162000EE2702F02FFD2378002B00F0448433785E
:10163000DB0740F14084534B1B68D8F800209B1A0D
:101640000E2B40F23884534A1368002B00F0478475
:101650001A465B68002BFBD14F4B53604F4B5048F1
:10166000197801F0F5F900224E4B186802F00103D9
:10167000DB0000EB8201960748BF43F010035507DB
:101680004B8044BF43F002034B8012F0080F1CBF95
:1016900043F004034B809400DB43013203F01E034C
:1016A000102A0353E0D100230293FFF711FC01231A
:1016B00003933B4801F0D2F98046002840F07D8238
:1016C000029B0133DBB2062B029300F00C84364BF5
:1016D0001C78002C00F01684344D324B30481B68C7
:1016E00003EB840233F82490568801F0C5F9304B9F
:1016F000C7B218682F4B1B68002203EBC71300F119
:10170000020CA3F80490DE803CF82210598030F8D7
:10171000221023F8081B0132102AF2D12648036850
:10172000BFF35B8FDA0740F1268424480368BFF3D8
:101730005B8FDB0740F10A84C0220021204805F0BE
:10174000EFFC2048C022002105F0EAFC2B68D3F80A
:1017500000A0BAF1000F40F023845246554653468C
:101760005446564651461848DFF860A0006800907D
:101770001748DFF86090008807FB00F080080190B0
:1017800036E000BF0CAAFF1FECAAFF1F10ABFF1F23
:1017900014ABFF1FA4A9FF1FC4A7FF1F2DA6FF1F87
:1017A000DCA9FF1F1CA6FF1FC0A7FF1F10A6FF1F5D
:1017B00018A6FF1F20A6FF1FFCA6FF1F38A6FF1FAD
:1017C00000A7FF1F3CA6FF1F24A6FF1F06A7FF1FA1
:1017D0002AA6FF1F42A6FF1F3AF8061C3AF8046C1F
:1017E0003AF8024C39F8063C39F8045C39F8022C16
:1017F00005F0010001F00107C5F3001C47EA80076E
:10180000C1F3001040EA8C00C1F3002EC5F3002C98
:10181000C5F3003B4EEA8C0EC1F3003C4CEA8B0C46
:1018200004F0010B47EA0B1704F0100B40EA0B0021
:10183000C4F3002B4EEA0B1EC4F3003B4CEA0B1C16
:1018400002F0010B47EA4B17C2F3001B40EA4B10B2
:10185000C2F3002B4EEA4B1EC2F3003B4CEA4B1C7A
:1018600003F0010B47EA8B17C3F3001B40EA8B1B05
:10187000C3F300204EEA801EC3F300304CEA801010
:1018800006F0010C47EACC1CC6F300174BEAC71B55
:10189000C6F300274EEAC717C6F3003E40EACE1E45
:1018A000C1F340004CEA002CC1F340104BEA002089
:1018B000C1F3402B47EA0B2BC1F340374EEA072E0A
:1018C000C5F340074CEA8727C5F3401C40EA8C2C3F
:1018D000C5F340204BEA802BC5F340304EEA802010
:1018E000C4F3400E47EA0E3EC4F340174CEA073CEF
:1018F000C4F340274BEA0737C4F3403B40EA0B3BB5
:10190000C2F340004EEA403EC2F340104CEA403081
:10191000C2F3402C47EA4C3C02F400574BEA070B59
:10192000C3F340074EEA8737C3F3401E40EA8E3EBA
:10193000C3F340204CEA803CC3F340304BEA803094
:10194000C6F3400B47EACB3BC6F340174EEAC73E0F
:10195000C6F340274CEAC737C6F3403C40EACC3CCC
:10196000C1F380004BEA004BC1F380104EEA004007
:10197000C1F3802E47EA0E4EC1F380374CEA074C84
:10198000C5F380074BEA8747C5F3801B40EA8B4BC2
:10199000C5F380204EEA804EC5F380304CEA80408B
:1019A000C4F3800C47EA0C5CC4F380174BEA075B76
:1019B000C4F380274EEA0757C4F3803E40EA0E5E28
:1019C000C2F380004CEA405CC2F380104BEA405006
:1019D000C2F3802B47EA4B5BC2F380374EEA475E87
:1019E000C3F380074CEA8757C3F3801C40EA8C5C42
:1019F000C3F380204BEA805BC3F380304EEA805013
:101A0000C6F3800E47EACE5EC6F380174CEAC75C89
:101A1000C6F380274BEAC757C6F3803B40EACB5B4F
:101A2000C1F3C0004EEA006EC1F3C0104CEA006C76
:101A3000C1F3C02047EA0060C5F3C0074EEA8767DC
:101A4000C90BC5F3C01E4BEA01614CEA8E6CC5F3AD
:101A5000C02EED0B41EA8565C749097840EA8E60E2
:101A6000DDF804E008FB01F10EEB9101C4F3C00EB8
:101A700047EA0E7EC4F3C0174CEA077CC4F3C027C4
:101A800040EA0770E40BC2F3C01745EA04744CEA5D
:101A9000477CC2F3C005C2F3C027D20B4EEA45759E
:101AA00044EA427EC3F3C00445EA8474F50844EA7C
:101AB000C574009D45F8214005EB810140EA477758
:101AC00044F00234C3F3C0104CEA80700C61F40996
:101AD00040EAC470C3F3C0224860DB0B40F0023020
:101AE00047EA82724EEA83734861F00AF60B42EAD3
:101AF000C07243EAC67308F101088A60CB6042F005
:101B0000023243F00233B8F1200F0AF1060A09F15C
:101B100006098A61CB617FF45FAE9848984C00F06B
:101B2000C1FF984A13780133DBB20F2B89BF954B65
:101B3000137000221A702378002B3FF4BAAD924B39
:101B40001B78092B00F25482904D8C48904F01264F
:101B50002E6000F0B7FF8F4B8F4A19888F4B1268A9
:101B60001B683F6803EBC01300FB01218C488D4AC2
:101B7000006800901268DDF800C0181DCCF8000065
:101B800013603960938B7D4823F080031B041B0C8A
:101B90009383938B9BB243F0200393834FF0000316
:101BA0002370814B1E700423D36009232B6000F047
:101BB00055FF804600283FF483AD01210E2001F03F
:101BC0009BFB0121062001F097FB0121022001F07F
:101BD00093FB0121152001F08FFB0121052001F06D
:101BE0008BFB0121072001F087FB0121142001F06C
:101BF00083FB0121092001F07FFB01210A2001F074
:101C00007BFB0121162001F077FB604D674E684F8A
:101C1000DFF88CB1DFF89C91DFF888A10121172053
:101C200001F06AFB002458492C606C600A78624B12
:101C3000B3FBF2F25211AA6007222A610A78B3FBC1
:101C4000F2F35B11AB615D4B1A6B4FF451710A43B8
:101C50001A6359631A6B5A4942F480321A63CB688B
:101C6000584A43F4003343F48073CB60136C43F061
:101C700002031364D36B43F00203D363336843F06E
:101C8000800333603846214600F0A6FF21464448D1
:101C900000F0A2FF2146434800F09EFF21463C4849
:101CA00000F09AFF3A68DFF820E1484BC2F800E004
:101CB000536039799BF80400C2F8089001F1804123
:101CC000000201234FF0080C01F504314FF6FC78B7
:101CD000DFF8FC90C2F8109040F02000D382C2F8E8
:101CE0000CC0D383C2F818C09083A2F81480B1222C
:101CF0000C700A70294ADBF80010D2F80090A1F8A5
:101D000014800420DAF80020C1F818C009EB00089C
:101D1000DFF8C0C0C1F800808860C1F810E0C8607A
:101D2000CB82C1F804C0CB838C832B49C2F80090CE
:101D3000C2F804C0D1469060D06011619AF80410D6
:101D4000DFF84CA0D3829AF80400D383000240F05D
:101D50002000908301F180414FF6F070908201F5F0
:101D6000043120209061B4220C700A700A4ADFF816
:101D70006CC0116834E000BF2CA6FF1FDCA9FF1F58
:101D800034A6FF1FC0A7FF1F299CFF1F0090034020
:101D9000E8A9FF1F2AA6FF1F24A6FF1F20A6FF1FDA
:101DA000F8A9FF1F00AAFF1F29A6FF1F00800040FF
:101DB000F0A9FF1F082000C080A812010090044075
:101DC00000C004400080044078A9FF1FFCFF02020D
:101DD00088F00F400200010118900340C0F00F404E
:101DE000DAF80020DFF86C8211601021C2F810C010
:101DF0005160D182D18302219183918B9AF80400A2
:101E0000DFF854C2D4606FEA41416FEA514189B2B0
:101E10009183411101F13821403100F1100E890008
:101E200000F01F0094829461C2F8088003FA00F069
:101E30008A4A4CF82E20086099F80420884802F15C
:101E4000604202F56442FE21117099F8042051119C
:101E500001F13821403102F1100E890002F01F0219
:101E600093404CF82E000B603B79F3769BF80430DE
:101E7000F37699F80430F3769AF80430F376092370
:101E80002B60FEF7B5FE2146122001F035FA2146FF
:101E9000132001F031FA734B40F203221A605A60AA
:101EA000FEF7E4FE704B1A680592704B059A1A60B3
:101EB00007B0BDE8F08F6C4B1B6822785B1B3AB112
:101EC000B3F5FA6F3FF6BFAB02F0DCF8FFF7A9BB42
:101ED000BB42F9D9664A1368002B7FF4B9AB654B56
:101EE0001360FFF7BBBB039B002B7BD1624B1B78BE
:101EF000092B00F29D80039B0293604B1C78002C01
:101F00007FF4EAAB5E4F5F4D3B78002B40F0818061
:101F10002B681C685C4E74B13378204623B123686B
:101F2000554ADB6811789847236820461B68984714
:101F30006468002CF0D1554C4FF0000333702378C7
:101F4000002B60D14D4B1C78FFF7C7BB01F05CF84C
:101F500000283FF4F1AB4E4B03F1C0024FF00001FB
:101F600019805980998006339A42F7D1494801F087
:101F700051F8FFF7E1BB01F047F800283FF4D5AB7B
:101F8000454B03F1C0024FF0000119805980998040
:101F900006339A42F7D1414801F03CF8FFF7C5BB40
:101FA000A6B2103423463C4DDFF8E49054469A46DE
:101FB000236820465B682A463146984723682046B6
:101FC0005B684A46514698476468002CF0D12988DE
:101FD0006E88AC88B9F80030B9F80250B9F804201E
:101FE000FFF7C1BBCDF80880CDF80C80FFF76FBBC1
:101FF000214A254E013B1370FEF76AFF284A012350
:1020000013703370A0E5FEF763FF4FF000032370F9
:1020100098E72B681E68CEB1224C2178304600F03C
:1020200053FD7668002EF8D12B681C683E7071E76E
:10203000114A154E013B1370FEF74AFF184A01235F
:1020400013703370039B0293FFF741BB3E700E4E3B
:1020500071E700BF4004F0BF0096FF1F5904000065
:102060006D0F000000A004400CAAFF1FA8A9FF1FCD
:10207000A4A9FF1FC4A7FF1F299CFF1FC0A7FF1F04
:102080002A9CFF1F10A6FF1F289CFF1F35A6FF1FBD
:102090003CA6FF1F38A6FF1F00A7FF1FFCA6FF1FBF
:1020A00028A6FF1F2EA6FF1F8446007A10B503281E
:1020B0003DD8DFE800F00802312ABCF80A00401AD7
:1020C0000138114682B2BCF80EE0BCF81040DCF8D2
:1020D00014004FEADE0E0EFB04000EFB020001F0BE
:1020E000070EC1F3CF018022405C42FA0EF210408D
:1020F00000D110BD9CF818201A709CF819205A7055
:102100009CF81A209A70012010BDBCF80C00801AAF
:1021100001380A4681B2D6E7BCF80A00401ABCF87A
:102120000C108A1A0138013A81B292B2CBE7002032
:1021300010BD00BF2DE9F04390F8956083B00023F7
:1021400005460F461446ADF804308DF80630FEB94A
:1021500043890DF10408C3B1B1B243463A4628465B
:102160000136FFF7A1FF58B19DF804109DF8053026
:102170009DF8062009021B02120221806380A280C2
:102180006B89B34204F10604E6DC03B0BDE8F083DA
:102190004289002AF9D0DFF848901E460DF1040864
:1021A000B1B243463A4628460136FFF77DFF70B18B
:1021B0009DF805209DF806309DF8041039F812208E
:1021C00039F8133039F8111021806280A3806B89AF
:1021D000B34204F10604E3DC03B0BDE8F08300BFC2
:1021E000B0FF00002DE9F04390F8956083B0002324
:1021F00005460F461446ADF804308DF80630E6B9B2
:1022000043890DF10408ABB1B1B243463A462846C2
:102210000136FFF749FF40B19DF804109DF80520F5
:102220009DF8063021706270A3706B89B34204F18F
:102230000304E9DC03B0BDE8F0834289002AF9D049
:10224000DFF844901E460DF10408B1B243463A4609
:1022500028460136FFF728FF70B19DF805209DF84C
:1022600006309DF8041019F8122019F8133039F8C7
:10227000111021706270A3706B89B34204F10304E2
:10228000E3DC03B0BDE8F083B0FF0000224823493F
:10229000234B244A30B4244D0560244C042008709C
:1022A0002021234821704FF4806404802148224C6F
:1022B00004605981214899814FF6FF7119839976FD
:1022C0001F49026002F5107008601E491E4C02F59D
:1022D00020704FF0BC15C2F88052086002F5007201
:1022E0001A48226000210122194C18601948D97639
:1022F000C3F88800C3F88C201748C3F89020C3F8AF
:102300009440164AC3F8841030BC83F8A810C3F870
:10231000AC005A61704700BF10A6FF1F2DA6FF1F1B
:10232000C4A7FF1F0082FF1FA4A9FF1F2CA6FF1F29
:102330002AA6FF1F24A6FF1F8484FF1F20A6FF1FBD
:1023400018A6FF1F14A6FF1F1CA6FF1FA0FF00005A
:1023500000010104BC0E0100EC07010074A8FF1F7E
:1023600058492DE9F043A1FB00435B09A1FB034160
:10237000C3EB03144909A0EB8400534C1070C1EB6C
:102380000115A4FB014CA3EB85034FEA1C1C537001
:102390004E4B4F4E4F4FDFF840810CF10400A3FB32
:1023A00000430CEB4C04A1EBC4019170C11A03EB88
:1023B00051039B08C3EBC303C01A431C0020D37016
:1023C000014640F26D190DE0B7EBB40F46D3B8EB00
:1023D000341F34BF4C464FF4B77421448C4500F190
:1023E00001000FD35FFA80FE0EF2B27313F0030503
:1023F00006FB03F4E8D040F26D1421448C4500F153
:102400000100EFD2354E82F806E0A6FB03067709FD
:10241000A5B36420F60900FB17374FF4C87000FB22
:10242000163640F26D10ACEB010CDFF8B4E06044FE
:10243000012100230AE013F80E40844234D80C290D
:10244000A0EB040012D001310133C9B2012B5FFAB5
:1024500083FCF0D12DB9EFB11D2403E04FF4B77424
:10246000BBE71C24A04229D3001BECE74FF00D0C66
:10247000013082F805C01071BDE8F083642000FBD4
:102480001737F6094FF4C87000FB16363FB14FF40A
:10249000B770C8E7002E14BF1C241D24E2E7002EED
:1024A000BFD14FF4B770BEE70CF1010C5FFA8CFCA2
:1024B000013082F805C01071BDE8F0834FF0020CC6
:1024C000D6E700BF89888888ABAAAAAA25499224A2
:1024D000295C8FC2285C8F020AD7A3001F85EB51AD
:1024E000E0010100F0B5334A8479864604FB02F22C
:1024F000C4B13148314D324E04F2B27C40F2B37374
:102500000CE09F0709D1B5EBB10F02D3B6EB311F39
:1025100003D302F5A83202F5C07201339C4500FBDB
:1025200003F1EED19EF8050001282CDD254E264949
:10253000264D04F2B274A6FB04367709642303FB2C
:102540001747F6094FF4C87303FB164604F003045B
:10255000012308E091F800C00133834205FB0C22FF
:1025600001F101010FD0022BF4D1002CF2D10FB9EF
:10257000002EEFD1013302F51812834202F56E529C
:1025800001F10101EFD19EF801309EF80210C3EB7A
:1025900003134FF46164980004FB01009EF80430BB
:1025A0009EF8004009492044013B01FB0300104410
:1025B0000021F0BD8033E101295C8FC2285C8F02CD
:1025C0000AD7A3001F85EB51E001010080510100F3
:1025D000F0B5234D234E2B683268234F83B0009310
:1025E000009B9B1AB3F57A7F37D3396801312C6889
:1025F0000094009B02F57A729B1AB3F57A7F084625
:1026000001F10101F3D2326038600094174C236865
:10261000834211D8164B1B6873B1984701430ED003
:102620002B680193134B019A1B68326003442360AB
:10263000114B386002221A70002103B0F0BD0E4920
:102640000C4A0B7838681268003B18BF012302441B
:102650000B700021226003B0F0BD3868D6E700BFE0
:102660000CAAFF1FC0A9FF1FCCA9FF1FC4A9FF1FF1
:10267000D0A9FF1F2C9CFF1FC8A9FF1F10B40A4B35
:102680000A491B680A4A0B4C1268206083B0034455
:102690000B60094B019202211970019A074B1A60D5
:1026A00003B010BC704700BF2C9CFF1FC4A9FF1FC4
:1026B0000CAAFF1FCCA9FF1FC8A9FF1FC0A9FF1F9D
:1026C00008B5FFF785FF014B187808BDC8A9FF1FA3
:1026D000034A0449044B126808601A60FFF778BF88
:1026E000CCA9FF1FD0A9FF1FC4A9FF1F38B5594AA5
:1026F000594C01231370682107220546204602F039
:1027000085F894F8612094F86030D11A062940F3D6
:102710008F809A4240F29B80E2180133127E84F847
:102720006030C2F30213D04303EB830302F00F02C5
:1027300002EB4302C0F3C0102A7094F8603094F8A2
:1027400061209A4240F281805A1C234484F8602020
:102750001B7E1A0902EB820203F00F0303EB420314
:10276000DBB26B7094F8603094F861209A426AD9B9
:102770005A1C234484F860201B7EC3F3011202EB31
:10278000820203F00F0303EB4203AB7094F8603056
:1027900094F861209A4254D95A1C234484F860204A
:1027A0001B7E1A0902EB820203F00F0303EB4203C4
:1027B000DBB2EB7094F8603094F861209A423ED915
:1027C0005A1C234484F860201B7E1A0902EB820203
:1027D00003F00F0303EB4203DBB22B7194F860307C
:1027E00094F861209A4228D95A1C234484F8602026
:1027F0001B7E1A0902EB820203F00F0303EB420374
:10280000DBB26B7194F8603094F861209A4211D970
:102810005A1C234484F860201A7E02F00F03120928
:102820001E3302EB820203EB4203DBB2AB7138BD15
:10283000002038BDC323AB71F9E7A523E1E7A52349
:10284000CBE7A523B5E72D239FE7A52389E75522ED
:10285000002071E7D4A9FF1FD09DFF1F014801F0A0
:102860000DBE00BFD09DFF1F70B50E4C0125D023BB
:1028700000210646204684F8633084F8AE5084F880
:10288000AD5001F06BFD2946204601F049FF18B11B
:10289000054B0020187070BD3046BDE87040FFF752
:1028A00025BF00BFD09DFF1FD4A9FF1F2DE9F04118
:1028B0004E4C4F4D0646012700214FF0D0082046D0
:1028C00084F8638084F8AE7084F8AD7001F046FD42
:1028D0008021204601F042FD7178A5FB0123DB0831
:1028E00003EB8302A1EB420101EB0311C9B22046C5
:1028F00001F034FDB178A5FB0123DB0803EB830273
:10290000A1EB420101EB0311C9B2204601F026FD03
:10291000F178A5FB0123DB0803EB8302A1EB420165
:1029200001EB0311C9B2204601F018FD3179A5FB76
:102930000123DB0803EB8302A1EB420101EB03114E
:10294000C9B2204601F00AFD7179A5FB0123DB081D
:1029500003EB8302A1EB420101EB0311C9B2204654
:1029600001F0FCFCB1791E39C9B2A5FB0123DB08DB
:1029700003EB8302A1EB420101EB0311C9B2204634
:1029800001F0ECFC3946204601F0CAFE30B1DFF818
:102990006480002088F80000BDE8F08184F863803E
:1029A000DFF8508084F8AE700146204684F8AD70A0
:1029B00088F8007001F0D2FC3178A5FB0135ED08F4
:1029C00005EB8503A1EB430101EB0511C9B22046DC
:1029D00001F0C4FC3946204601F0A2FE0028D8D1FF
:1029E000384688F80000BDE8F08100BFD09DFF1F89
:1029F000CDCCCCCCD4A9FF1F30B5134C012583B06E
:102A0000D0230021204684F8633084F8AE5084F847
:102A1000AD5001F0A3FC2946204601F081FE30B103
:102A200000220A4B104611461A7003B030BD6846AA
:102A3000FFF75CFE20B16846FFF754FD03B030BDE0
:102A40000020014603B030BDD09DFF1FD4A9FF1F59
:102A50000023C0E900138360704700BF82680068EC
:102A6000101AB0FA80F04009704700BF8068B0FAD1
:102A700080F04009704700BF4368816802680B44DA
:102A800093FBF2F002FB1030704700BFD0E9001357
:102A900082680133013A93FBF1FC01FB1C33436074
:102AA0008260704783680268934202D0013383607A
:102AB00070474268013292FBF3F103FB112242603E
:102AC000704700BF4068704711F0FD0F07BF428993
:102AD0008389828943890172C2810382704700BF62
:102AE0008174704730B4194C8A682368002BB7BFD3
:102AF00000235D001D462360555B85421FFA80FC64
:102B000010D012D24D88AB421ADA02EB4302591CA4
:102B1000A9420B4601F1010111D032F8020F6045C4
:102B2000F6D12360184630BC704702EB4302013BEC
:102B3000F7D332F8021D6145F9D12360F2E7256031
:102B40004FF0FF33184630BC704700BFD8A9FF1FB5
:102B500070B556788E4201D8002070BD0D461146E2
:102B60001446FFF7BFFF0028F6DBE36800FB0633DF
:102B7000585D70BD014B53F820007047CC0E01002A
:102B800010B5044600F086F8204610BD38B50C4D4F
:102B90000C4C0D482A46214601F0B6FB2A46214638
:102BA0000A4801F0B1FB2A462146094801F0ACFB76
:102BB0002A4621460748BDE8384001F0A5BB00BFC2
:102BC000249CFF1F812B0000F0A9FF1FF8A9FF1F05
:102BD00000AAFF1FE8A9FF1F10B472B621B902684E
:102BE00012B103790F2B41D9284C2188002341FAD7
:102BF00003F212F0010208D00133102BF7D162B6B4
:102C000000220260037110BC70474FF0010C0CFAF7
:102C100003FC41EA0C01218062B61D495FFA83FC86
:102C200080F804C00C6C44F002040C64CC6B44F0DB
:102C30000204CC6303F10073A1F58021822403F523
:102C400090630C605B0181F81AC081F81EC081F8A6
:102C500018C081F81FC010BC0360C3E90022C3E99B
:102C60000222C3E90422C3E906227047074C2188E7
:102C700041FA03FC1CF0010FB8D003F1007303F517
:102C80009063B2EB431FB1D162B6BCE708AAFF1F45
:102C90000080044003790F2B11D8094A937672B64D
:102CA000084990F804C00B88012202FA0CF223EACA
:102CB00002030B8062B6102200230271036070478A
:102CC0000080004008AAFF1F0020704770B5012A4D
:102CD0008AB008BF0A22A1B34FF0210E02E05FFACA
:102CE00086FE2946B1FBF2F502FB15145FFA84FC5F
:102CF000092C0CF1300498BF5FFA84FC0EF1280413
:102D000088BF0CF1370C6C4488BF5FFA8CFC914291
:102D10000EF1FF3604F824CCE1D24BB10EF1FF3EA8
:102D20005FFA8EFE0EF128036B442D2203F8242C4B
:102D3000036801A95B68CEF12202714498470AB08A
:102D400070BD30228DF825204FF0210EE5E700BF41
:102D50000029BABF49422D2300230A22FFF7B6BF3C
:102D600000B5036883B040F60D22ADF804205B681F
:102D7000022201A9984703B05DF804FB034B022827
:102D800088BF034618461B685B681847149DFF1FE1
:102D900032B9036800B51B685DF804EBC9B2184787
:102DA000FFF794BF08B5FEF72DFCFEF741F801F0E0
:102DB00069F9FAE701B441EA000313F003036FD1A4
:102DC000403A41D351F8043B40F8043B51F8043BEE
:102DD00040F8043B51F8043B40F8043B51F8043BF5
:102DE00040F8043B51F8043B40F8043B51F8043BE5
:102DF00040F8043B51F8043B40F8043B51F8043BD5
:102E000040F8043B51F8043B40F8043B51F8043BC4
:102E100040F8043B51F8043B40F8043B51F8043BB4
:102E200040F8043B51F8043B40F8043B51F8043BA4
:102E300040F8043B51F8043B40F8043B51F8043B94
:102E400040F8043B403ABDD2303211D351F8043B34
:102E500040F8043B51F8043B40F8043B51F8043B74
:102E600040F8043B51F8043B40F8043B103AEDD2E3
:102E70000C3205D351F8043B40F8043B043AF9D234
:102E800004320AD0D2071CBF11F8013B00F8013B05
:102E900003D30B7803704B78437001BC704700BFBD
:102EA0000C2A4AD310F0030311D0C3F10403D21A41
:102EB000DB071CBF11F8013B00F8013B07D311F8F9
:102EC000013B00F8013B11F8013B00F8013B11F018
:102ED00003033FF475AF30B4043AC91AC3F1040CCC
:102EE00051F8044B022B19D0032B0BD0240A51F8B4
:102EF000043B1D0644EA050440F8044B1C46043A12
:102F0000F4D216E0240E51F8043B1D0244EA0504F5
:102F100040F8044B1C46043AF4D20AE0240C51F861
:102F2000043B1D0444EA050440F8044B1C46043AE3
:102F3000F4D20432B1EB0C0130BC043AA0D3013A14
:102F400011F8013B00F8013BF9D20B7803704B7884
:102F500043708B78837001BC704700BF08B50F4C7D
:102F6000636B58030DD4636B59050FD4636B1A055B
:102F700011D4636BDB04F3D500F012F8636B5803D4
:102F8000F1D500F0B1FA636B5905EFD500F008F800
:102F9000636B1A05EDD500F003F8EAE70080044002
:102FA00008B5FFF7DBFF00BF014B10221A80704706
:102FB00000200540704700BF094A08B50346106865
:102FC00033B169460344A1F580518B4201D21360AD
:102FD00008BD04F0DBF90C2303604FF0FF3008BD9F
:102FE000309CFF1F002070474FF0FF30704700BF3C
:102FF0004FF400534B600020704700BF0120704722
:103000004FF0FF30704700BF0078B0FA80F0400901
:10301000704700BF01230370704700BFFEE7FFFF4A
:1030200001F1FF3C70B56546002401E070460134B3
:10303000B0FBF2FE02FB1E03092B03F130068ABF30
:103040003733F3B2DBB2904205F8013FEED2631C96
:103050000022CA54C8187CB162461CF8015F10F8FF
:1030600001ED8CF800E0A1EB0C030232013B521A97
:1030700023449A420570EFDB084670BD704700BFDD
:10308000212835D8042A33D830B42A4B2A4D53F896
:10309000223005EBC0021B045468226812F4E0627F
:1030A00039D0264A2648C2F89C012648C2F8A00119
:1030B0002548C2F8A4012548C2F8A8012448C2F84E
:1030C000AC0104F14042A2F592207C2811D821489D
:1030D00072B6226822F4702222601343C4F3840281
:1030E00043F0807340F82210236062B630BC704712
:1030F0007047A2F594207C2815D9A2F596207C284B
:1031000013D9A2F598207C2811D9A2F59A227C2AFD
:10311000ECD81148DCE755F8300080F880224FF4F5
:1031200080722260BDE70D48D2E70D48D0E70D4818
:10313000CEE700BFD4370100E83701000096FF1F3B
:10314000F19BFF1FBD9BFF1F899BFF1F559BFF1F0F
:10315000219BFF1F349CFF1F0C9DFF1F6C9CFF1FBA
:10316000BC9CFF1FEC9CFF1F1A4B03EBC0035A686B
:1031700002F14043A3F592217C2905D9A3F59421BE
:103180007C2914D8144900E0144910B472B61368AD
:10319000134C23F08773C2F3840023F4803343F08D
:1031A0008073136041F8204062B610BC7047A3F5ED
:1031B00096217C2909D9A3F598217C2907D9A3F563
:1031C0009A237C2B05D80749DFE70749DDE7074944
:1031D000DBE77047E83701006C9CFF1F349CFF1F42
:1031E0007D3000000C9DFF1FBC9CFF1FEC9CFF1F4F
:1031F000034B002210215A615A60186059617047D0
:1032000000D00340704700BFF0B54FF0E0244FF40A
:1032100000054FF0807CC4F80851C4F808C14FF095
:10322000007CC4F808C11D4A1D481E494FF0806C3F
:10323000C4F808C12823002748F6FF7609254FF077
:10324000006CC4F808C183B057609660D3605361C6
:10325000D3615362D3625363D36353641560476091
:103260008660C360436105604F608E60CB604B61D8
:103270000D6000F0ABFFFFF7C5FF0B4C2368009318
:10328000009B132BFAD900F0E9FC23680193019B02
:10329000B3F5967FF9D303B0F0BD00BF00800340C3
:1032A0000090034000800B400CAAFF1F212816D875
:1032B00010B4104B53F8302092F880422CB1012307
:1032C00071B982F8003110BC704703EBC0035B6832
:1032D0001A6849B142F0030210BC1A607047704787
:1032E00082F8803010BC704722F0020210BC1A60D5
:1032F000704700BFE8370100212820D81B4A02EBA5
:10330000C00301295B680FD004291DD052F830009A
:10331000002280F8802299B1022922D003290DD100
:103320004FF481721A60704752F830004FF4A27265
:1033300080F880121A601A6822F020021A60704722
:103340004FF480721A60704752F830104FF4A27236
:10335000012081F880021A601A6842F020021A6087
:10336000704740F203121A60704700BFE83701004F
:10337000431E032B17D872B60C4951F8230080B1B5
:1033800010B40B4CB0F800C034F81320A2EB0C02C0
:10339000D0F804C041F823C024F8132062B610BC52
:1033A000704762B670470020704700BFA0AAFF1F99
:1033B000F0AAFF1F013803280BD872B6074B53F849
:1033C000203043B100205B680130002BFBD162B696
:1033D0007047002070471846F9E700BFC8AAFF1FD2
:1033E00010B472B6194A1A4C042312F8011B0907CB
:1033F00043F0010C05D554F8331061B154F83C107A
:10340000B9B10433142BF0D162B6124B00221A70FA
:1034100010BC00F09BBC0F4904EBC30208305060A5
:103420000A780D4844F83300013A0A7062B610BCBD
:103430007047084A094904EBCC03083058601378F8
:1034400044F83C10013B137062B6F0E77839010094
:103450000080FF1FF8AAFF1F88004000C80040003E
:10346000421E032A0ED81C4B400140F0100010B43D
:10347000034472B6194CA05C03281CD8DFE800F0A6
:103480001315031870470520A05413F0080F08887F
:1034900014BFC8228822083142EA004259601A60EB
:1034A00062B610BC70470320EEE708330220EBE75A
:1034B00008330420E8E70A4B53F8220038B1094BDF
:1034C00053F82200416043F8221062B6E9E743F85E
:1034D0002210044BF7E700BF0080FF1FE8AAFF1F80
:1034E000C8AAFF1FD8AAFF1F2DE9F04FDFF8CCA212
:1034F000DFF8CCB285B03DE0B24D9E0805EBC607C3
:10350000013A796813F00803D4B2A1F1080040F041
:10351000B88055F836204FEA124C120C21F808CC2E
:1035200000F0A78021F8063C41F8043CA64B53F874
:103530002420002A00F00182A44B53F8242050607C
:1035400043F82400A24B33F81420944423F814C009
:1035500000F0DCFB002800F0E98117F0080F9D4B1C
:1035600000F1080018BF5B46786045F83630082344
:103570008AF880309AF880305907DCB21BD5964B18
:103580001B78ABB195490A7802F0FF032AB1013BE1
:10359000DBB20B70002B00F0468391490A7802F0F1
:1035A000FF032AB1013BDBB20B70002B00F0EB8173
:1035B00004238AF8803014F0080200F0CC819AF8D5
:1035C0009020D3B2120997D1DFF8F8919B0809EB4C
:1035D000C30459F833006468C0F3830009287CD021
:1035E0000FD80138012808D87E4A158842F22100F8
:1035F000854200F0FB8149F833B001238AF894300A
:10360000B5E70D28F9D1D4E90007774D49F833B073
:10361000744E764CC9F8102083B240F2816CC9F820
:1036200018202A6063454FF00102C6E900072270A6
:1036300000F2FF80B3F5D06F80F0CB82B3F5817FCD
:1036400000F0268240F2DE8040F2023293427BD1CB
:1036500007F07F07042F00F20881020C40F005817B
:10366000634911F8273043F0020301F8273013466D
:1036700070E017F0080F574B18BF5B4645F836301F
:1036800075E700F063FB5B495B4A51F82430002B7F
:1036900000F05781586841F82400115D03F10800DB
:1036A0007860032905D8DFE801F0120F1502042124
:1036B00011551A8817F0080F14BFC823882343EA4E
:1036C000024345F8363052E702211155F1E7032154
:1036D0001155EEE705211155EBE7434D2A683AB342
:1036E0004649424C0F88464894F800E00678402F3F
:1036F0003B4628BF4023BEF1000F8EF0010E84F838
:1037000000E046F0020486F00106067009EBC400F2
:10371000426014BFC820882040EA03401A44FB1AC4
:103720009BB249F834000B80002B00F036812A60F0
:103730002C4B1A88B2F5A06F7FF45FAF9A788AF8A5
:10374000982000225A7058E7B3F5A06F40F08D80A2
:1037500000221346B6F806C02948944528BF94466F
:1037600067460278402F28BF402742F0020E3E04F1
:1037700009EBCE0846F0C806C8F8043049F83E60A8
:1037800000263B442670BCEB070782F0010606705A
:1037900040F01181BCF13F0F4FF0010509D946F00F
:1037A0000206027009EBC60225705360882349F8AF
:1037B000363001238AF894301FE700BF002007400D
:1037C000C80040000080FF1FA0AAFF1FB0AAFF1F73
:1037D000F0AAFF1F88004000ECAAFF1FEDAAFF1F00
:1037E00018ABFF1FC0AAFF1F94AAFF1F91AAFF1FBB
:1037F000C0200740C8AAFF1FE8AAFF1F92AAFF1F08
:1038000090AAFF1F802B00F08B81822B2DD107F017
:103810007F07042F29D8A74A00231380A64B13F84B
:1038200027309F0740F1FC8101231370A14B022236
:1038300090E742F2210C6345BBD01DD942F2212210
:1038400093420DD1BFB2002F82D19C4B1A689C4B82
:103850001A609C4BC0F3074000221870134679E7AA
:1038600042F2213293423FF473AF0F238AF8C03003
:1038700001238AF89430C0E6B3F5086F00F04A815E
:10388000B3F5106FF1D1904BC0F3074004251870C9
:1038900059F835301A0606D40135142D0CD059F8D4
:1038A00035301A06F8D509EBC503013558680838D4
:1038B00000F04CFA142DF2D1844A854B0292854ACD
:1038C0000192854E854ADFF8188203940092002504
:1038D0001C4656F8047B2FB138467F6800F036FA54
:1038E000002FF9D1009BD8F8007043F8045B46F82C
:1038F000045C00932FB138467F6800F027FA002F50
:10390000F9D1029B48F8045B43F8045B0293019BE6
:1039100023F8025B01932378023B032B00F2098119
:10392000DFE813F03F0104013F0104016D4A45F84F
:10393000360013780133137019E643F82400674BFF
:10394000FEE5115D022926D07FF611AE03291DD1B7
:10395000012313550BE6E0076ED4210621D4A207FC
:1039600008D5614B93F888200221D2B283F88820D1
:1039700083F88010E30603D55B4B102283F8802088
:1039800005B0BDE8F08F00F059FB11E617F0080F05
:1039900014BF032302231355E9E53F2F98BF0022EC
:1039A000C5E6514B80220D2183F8C01083F880209A
:1039B000A207DFD5D5E746F002060270402F09EBDB
:1039C000C6003A4628BF402243601004134440F02A
:1039D00088000121BA1A49F83600217055D02B60B1
:1039E000424B1A8001238AF8943006E692885AB92D
:1039F0003F4AE51D14F8011B02F8011FAC42F9D142
:103A00003C4A1268862A3CD03B4C3C4825780278D8
:103A1000002D85F00105257042F0020482F00102BC
:103A2000027009EBC4024FF00000506014BFC822BE
:103A3000882249F83420DEE52B4B30483049314CA0
:103A4000022583F8945002702F480C602F4D486077
:103A50008C600D24CD60FF200A618A6183F8C0402C
:103A600001219F2483F8880083F8800083F8982040
:103A700083F88C0083F8844083F8941005B0BDE887
:103A8000F08F234A0F201070BEE73F2FA7D890E693
:103A900007F07F07042F3FF6E8AE000C7FF4E5AE99
:103AA000054A12F8273023F0020302F827300022DB
:103AB00013464FE698AAFF1FC02007400CAAFF1F1D
:103AC00014ABFF1F10ABFF1FECAAFF1FD8AAFF1FEC
:103AD000E8AAFF1FF0AAFF1FA0AAFF1FB0AAFF1F9E
:103AE000C8AAFF1FF8AAFF1F0020074092AAFF1FC5
:103AF00007ABFF1F08ABFF1F91AAFF1F90AAFF1F74
:103B00000080FF1F8800400010AAFF1F50AAFF1F5F
:103B1000EDAAFF1F484B49491B780B700B4619E66D
:103B2000464A00231380454B022213E64FF001035F
:103B30002370434BB34204F101047FF4CAAE414EFB
:103B4000039CDFF80481414F00233370042518F8EB
:103B5000013B3F4AAB541B0725D445F0020145F019
:103B6000030204350023142D49F8313049F832306E
:103B7000EDD1384F25783A7842F0020009EBC00CBD
:103B800085F00106CCF80430002D4DD1882382F059
:103B9000010226703A7049F8303001238AF89430D7
:103BA0002BE52570C5E700F0B1F8002832D009EB0D
:103BB000C5030830586049F8357000F0A7F808B31D
:103BC00045F0010309EBC3020830506049F833B0F7
:103BD000C3E7214A5368002B3FF447AE000CBFB245
:103BE00004E013690C32002B3FF43FAE1188814290
:103BF000F7D15188B942F4D1000A03280CBF1A78D2
:103C00001289A7E533780133337045F0010349F891
:103C10003300A2E7337849F8350001333370CCE73D
:103C2000064B022296E500BE2670C82382F00106EC
:103C30003E7049F83030BCE5ECAAFF1F98AAFF1F80
:103C4000B0AAFF1FF8AAFF1F7839010088004000C2
:103C5000C020074090AAFF1F2439010070B500F072
:103C60001BFB00231A4A194642F8331002EBC3002B
:103C70000133142B4160F7D1164C174B606B174D75
:103C800040F480206063C2F3072483F89C40144C06
:103C9000FF204FF0010CC2F30746120E83F8B0600C
:103CA0004FF0E02E83F8B42083F8800083F888007A
:103CB000187483F894C0217083F884C0702385F849
:103CC00049304FF400721023CEF80821237270BDE2
:103CD0000080FF1F008004400020074000E400E057
:103CE0000021074000F0ACB800F07CB800F056B8F6
:103CF00000F090B800F076B900F050B908461146CF
:103D000000F0BAB8084600F03BB900BF72B60D49E2
:103D10000B68B3FA83F00B2810DC4FF00042C2406E
:103D200023EA02030B6062B6074A00EBC000C10041
:103D300002EBC000002353504360704762B600207E
:103D4000704700BF249DFF1FBC97FF1F0E4BC31A77
:103D5000B3F5587F10D20D4A127872B972B60C4A78
:103D60000C49A2FB032308684FF000421B0922FA0A
:103D700003F303430B6062B67047074A1278002AC8
:103D8000ECD0FFF72DBB00BFBC97FF1FF8AAFF1FA9
:103D9000398EE338249DFF1FECAAFF1F38B50F4C66
:103DA000206878B143880288C11801339A420D7A9D
:103DB00002D94380284638BDFFF7C8FF002323609F
:103DC000284638BD064B1B782BB10320FFF7D0FAED
:103DD00020600028E6D14FF0FF35EBE7FCAAFF1F7B
:103DE000ECAAFF1F10B5094C206818B1438818448D
:103DF000007A10BD064B1B782BB10320FFF7B8FAF1
:103E000020600028F2D14FF0FF3010BDFCAAFF1F48
:103E1000ECAAFF1F084B094A1B6810B594881BB118
:103E20001A885B88D31A1C440CB1204610BD00F0E0
:103E300029F9204610BD00BFFCAAFF1FF0AAFF1FF2
:103E40000B4B1B789BB110B50A4C206848B1FFF7AB
:103E50007DFF002303202360FFF78AFA30B1FFF7CC
:103E600075FF0320FFF784FA0028F8D110BD7047D2
:103E7000ECAAFF1FFCAAFF1F2DE9F04FDFF8EC9022
:103E800083B0012289F80020019179B3384FDFF81F
:103E9000E480019D384EDFF8E4A083463968A1B381
:103EA000B1F802E0CEF1400CAC4528BFAC460EEBB9
:103EB0000C040022A4B23270A5EB0C054C8001F179
:103EC0000802BCF1000F0AD00EF1FF3E7244DC4440
:103ED0001BF8014B02F8014FDC45F9D14C883F2C0F
:103EE0000BD805228AF80020002DD7D10198002395
:103EF00089F8003003B0BDE8F08F40220A8004202A
:103F0000FFF7AEFA00223A60EBE798F800202AB3F8
:103F100048F6014408E0013C19D03278BAB900F003
:103F2000B1F898F80020CAB10420FFF743FA072837
:103F3000F1D84FF0010389F80030FFF7E7FE0146A2
:103F400038600028ACD1013C89F80000E5D101239C
:103F50004FF0FF30337003B0BDE8F08F00234FF017
:103F6000FF3089F8003003B0BDE8F08F01ABFF1FD0
:103F700004ABFF1FECAAFF1F00ABFF1F18ABFF1F16
:103F800000B583B0034601210DF107008DF807301D
:103F9000FFF772FF03B05DF804FB00BF38B50E4DAC
:103FA0000E4C28680123237028B140880023C0F1FB
:103FB0004000237038BD0A4B1B7813B900202070D5
:103FC00038BD0420FFF7F6F90728F7D8FFF79EFE63
:103FD00028600028E9D1F1E704ABFF1F01ABFF1F08
:103FE000ECAAFF1FF8B5114B1B788BB1104E114D89
:103FF000346801272F7064B10F4B00271F7063884E
:10400000238021460420FFF72BFA376000232B7012
:10401000F8BDFFF77BFE084B014620B104201C7061
:10402000FFF71EFAF2E71F70F0E700BFECAAFF1FD0
:1040300004ABFF1F01ABFF1F18ABFF1F38B50E4BC2
:104040001B7853B90D4C216841B103F0FF054B8833
:104050000B800420FFF704FA256038BDFFF756FEF9
:10406000014620B1BDE838400420FFF7F9B9044B00
:1040700001221A7038BD00BF01ABFF1F04ABFF1F48
:1040800018ABFF1F2DE9F843324E337863B1324F3E
:104090003A784AB90122D9073A7043D49A0726D40C
:1040A00000225B073A7001D4BDE8F8832B4B1A68F5
:1040B000002AF9D0EFF30582002AF5D1EFF310853D
:1040C00072B6186800283AD0254C2178002936D1DC
:1040D00042691A6001232370002A37D0916105B923
:1040E00062B600258368457798472570DCE7DFF8DE
:1040F000748098F80020002AD2D00025DFF868905C
:104100002B4659F82340236820461B690135984700
:1041100008B12369984798F80020EBB29A42F0D88A
:104120003378BDE7FFF776FE68B9104B1B780BB903
:104130003378B3E7337803F0FE033370AEE7002D36
:10414000B2D162B6B0E700F0A5F8EEE7084B1A600E
:10415000C5E700BF289DFF1F19ABFF1F1CABFF1F4A
:1041600028ABFF1F3CABFF1F30ABFF1F2039010006
:104170002CABFF1F70B5EFF3108272B60C4C2068A9
:1041800080B10C4E00254369236073B19D6102B973
:1041900062B6836845779847EFF3108272B620685D
:1041A0000028F0D102B962B670BD3360EFE700BFFE
:1041B00024ABFF1F20ABFF1FFFF7DCBF024A1368D1
:1041C00001331360704700BF0CAAFF1F2A4B2B4A14
:1041D0006020E1211870597013782948082B34D0D9
:1041E0000A2B20D00C2B274B0CBF15213D2112226E
:1041F0008160C2609960DA60234B21491B78214AB3
:10420000CBB101230B621362204B1D491B781D4A61
:10421000012B13D9042B1BD884234B6253621C4BF4
:1042200001221A707047174B192113228160C26056
:104230009960DA60E0E70B621362E5E780234B6286
:104240005362134B01221A7070470E4B0121ECE7A9
:10425000082B06D885234B6253620D4B01221A703E
:104260007047102B94BF862387234B625362084B01
:1042700001221A70704700BF00400740299DFF1FB0
:1042800000B0034000B00B403DABFF1F2A9DFF1F55
:104290003EABFF1F704700BF10B584B072B6174A1F
:1042A000702441200F2180231470D07191711370FC
:1042B00013781B06FCD5906862B6114B114C9842DE
:1042C00038BF00EB800001A938BF40000A22FEF78A
:1042D000A7FE01A92046002311F8012B01333AB1B2
:1042E0000A2B20F8022FF7D11623237004B010BD3B
:1042F0005B00DBB2237004B010BD00BF00000240C1
:1043000080969800B89DFF1F03460846194602F0A4
:10431000EBBC00BF90F8612090F86000101A704765
:1043200090F8603090F861209A4205D95A1C0344F5
:1043300080F86020187E70474FF0FF30704700BF54
:1043400090F8603090F861209A4286BFC018007ED5
:104350004FF0FF30704700BF704700BFB0F8AE307D
:104360002BB190F8AD30482B03D9012343600020D6
:104370007047C218013380F8AD30012082F8631015
:10438000704700BF38B5B0F8AE40A4B190F8AD307A
:10439000C3F14904A24284BF01224260054698BF8E
:1043A0001446633018442246FEF704FD95F8AD30FC
:1043B000234485F8AD30204638BD00BF70B5164C9B
:1043C0002369DB7813F0200514D094F8B030013362
:1043D000DBB2012B84F8B03002D894F8AF3043B987
:1043E000636994F8B1201344BDE87040187AFEF771
:1043F000BBBE70BD636994F8B1201344187AFEF710
:10440000B3FED4F8B830002BF3D094F8610084F8F0
:104410006050BDE8704018478C9EFF1F70B5164C69
:104420002369DB7813F0200514D094F8B030013301
:10443000DBB2012B84F8B03002D894F8AF3043B926
:10444000636994F8B1201344BDE87040187AFEF710
:104450008BBE70BD636994F8B1201344187AFEF7DF
:1044600083FED4F8B830002BF3D094F8610084F8C0
:104470006050BDE870401847D09DFF1F426900237F
:10448000A0F86030C0F8AC3010B4D2E900140A686B
:10449000C0F8B43022430469C0F8B8300A60A37091
:1044A000426990F8B1301849134493F808C05B7B17
:1044B00001EBCC0C1B02DCF8044003F4E06343F096
:1044C0006403236090F8B23013449C7CDB7D01EBE5
:1044D000C4011B024C68116803F4E06343F06403F9
:1044E000236009685368194205D0036928225A706D
:1044F000036903229A71036920225A710369802299
:104500009A7010BC704700BFE837010010B503690E
:10451000D978CAB2C906044622D510215006D970EE
:104520001DD512F0040250D03D49D4F8B420002328
:104530000B7084F8AD30002A5BD0904794F8AD3012
:10454000002B56D02369D0229A70236994F86320F7
:104550001A712369012284F8AC200222DA7010BD9E
:104560005106DED4997811F0100117D12D4A80F848
:10457000B01090424FD02C4A904241D094F8611034
:104580001A794729D2B2E8D8254800780028E4D023
:10459000481C214484F861000A76DEE712F001022B
:1045A00020D190F8AC1090F8AD00884281BF4A1C31
:1045B000091984F8AC2091F863201A712369D0227C
:1045C0009A7023690222DA70C9E7236984F86120AE
:1045D000C0219970124A23690121117002221879B1
:1045E000DA70BCE7C0229A7003691A790222DA7085
:1045F000B5E70122002384F8AD2084F86330A1E7F9
:10460000436990F8B120094913440322187AFEF750
:1046100037FD2369B2E7436990F8B1200449F3E715
:104620003FABFF1FD09DFF1F8C9EFF1FBD430000AF
:104630001D4400002DE9F047374C0269236882B021
:104640000093DDF80080D378990618D5334E0546DF
:10465000002102E0D3789B0611D523680193019BCA
:10466000A3EB08030F2BF5D969B1102BF2D0002072
:1046700090702B6980229A7002B0BDE8F08701200B
:1046800002B0BDE8F08795F8B1206B6913440521AD
:10469000187AFEF731FE6B6995F8B12013440121B9
:1046A00093F812A05046FEF727FE09274FF078092D
:1046B00000215046FEF7FAFD4B46013BFDD101219A
:1046C0005046FEF7F3FD4B46013BFDD1013FEFD1D4
:1046D000696995F8B1300B44F022187A5B7B06EBE0
:1046E000C0001B02406803F4E06343F0640303600E
:1046F00095F8B2300B44997CDB7D06EBC1011B02BF
:10470000496803F4E06343F064030B60013AFDD1B0
:1047100001212A699EE700BF0CAAFF1FE8370100AC
:10472000F0B503691222DA700269937813F020065B
:1047300085B004460D4652D0B423937032492069A7
:104740000B680093009E05E00A680192019A921B93
:10475000042A3DD8C37813F02003F5D094F8AD3087
:104760006BB34FF0000CE646022604EB0E0393F801
:10477000633003710B680293029F206907E0920681
:104780000AD50A680392039AD21B052A20D8C37857
:10479000DAB213F00203F2D0C6702369DA78D7B226
:1047A000D206184626D4BA0624D5FA0726D494F899
:1047B000AD300CF1010C5FFA8CFE7345D5D80020AA
:1047C00015B1236980229A70002384F8AE3004E08A
:1047D0008370236980229A70042005B0F0BDFFF732
:1047E00029FF28B1236984F8AF60B0229A70A5E749
:1047F0000420F2E780229A700420E1E7BEF1000F66
:104800000CBF02200320DDE70CAAFF1F2DE9F047B3
:104810009046994600220369A0F860201222DA70BF
:1048200003699C7814F0200588B007468A4600F09A
:104830009F80B4229A70704E3B6932680092009A51
:1048400008E030680190019CA4EB020CBCF1040F5D
:1048500000F28680DC7814F02005F2D04FEA4A029C
:1048600042F00102D2B21A713368029302983A6997
:1048700006E0336803930399091A052900F2828040
:10488000D47814F00205F4D04FF0020C82F803C083
:104890003B69DC7814F011057CD1B8F1000F00F011
:1048A0008480B8F1010F00F08D80A0229A703969E0
:1048B0000B794FF0A80E33680493049805E0326832
:1048C0000592059A121A052A68D8CB7813F00203CC
:1048D000F5D081F803C03969CB78DCB2DB06084635
:1048E0000A4641D4A4063FD508F1FF385FFA88F89C
:1048F000B8F1010F04D181F802E0396908460A468F
:10490000472D59D90379B8F1010FD4D133680693F3
:10491000069805E0316807910799091A052956D8C4
:10492000D37813F00203F5D00223D3703A69D37819
:10493000D806D9B255D48B0616D5B023472D93701F
:104940004CD83A697C19127922766B1CDDB2B9F128
:10495000000F02D03B6980229A7087F8615003E013
:104960009D703B6980229A70284608B0BDE8F087A8
:10497000FFF760FE0028F7D03B6987F8AF50B02200
:104980009A7058E795703B69802228469A7008B063
:10499000BDE8F08780229A700025E5E78B703B69BF
:1049A00080229A7087F86150DEE7B9F1000F14BFDA
:1049B0008022A0229A70D7E77B19007918766C1CA8
:1049C000E5B2A0E7A8229A703A6913799EE793703E
:1049D0003B6980229A7087F86150C5E73B691B7973
:1049E000B5E710217823D170013BFDD13A69937866
:1049F00003F0F7039370B7E70CAAFF1F0148FFF716
:104A000085BD00BFD09DFF1F0148FFF77FBD00BFE0
:104A10008C9EFF1F81F0004102E000BF83F0004345
:104A200030B54FEA41044FEA430594EA050F08BF49
:104A300090EA020F1FBF54EA000C55EA020C7FEA0D
:104A4000645C7FEA655C00F0E2804FEA5454D4EB8A
:104A50005555B8BF6D420CDD2C4480EA020281EA54
:104A6000030382EA000083EA010180EA020281EA8C
:104A70000303362D88BF30BD11F0004F4FEA0131DE
:104A80004FF4801C4CEA113102D0404261EB4101ED
:104A900013F0004F4FEA03334CEA133302D0524273
:104AA00063EB430394EA050F00F0A780A4F101042F
:104AB000D5F1200E0DDB02FA0EFC22FA05F2801869
:104AC00041F1000103FA0EF2801843FA05F359414F
:104AD0000EE0A5F120050EF1200E012A03FA0EFCCE
:104AE00028BF4CF0020C43FA05F3C01851EBE371F8
:104AF00001F0004507D54FF0000EDCF1000C7EEB15
:104B000000006EEB0101B1F5801F1BD3B1F5001F52
:104B10000CD349085FEA30004FEA3C0C04F1010471
:104B20004FEA445212F5800F80F09A80BCF1004F9A
:104B300008BF5FEA500C50F1000041EB045141EA1C
:104B4000050130BD5FEA4C0C404141EB0101013CE5
:104B500028BFB1F5801FE9D291F0000F04BF0146D4
:104B60000020B1FA81F308BF2033A3F10B03B3F1A6
:104B700020020CDA0C3208DD02F1140CC2F10C0236
:104B800001FA0CF021FA02F10CE002F11402D8BF94
:104B9000C2F1200C01FA02F120FA0CFCDCBF41EA60
:104BA0000C019040E41AA2BF01EB0451294330BD2F
:104BB0006FEA04041F3C1CDA0C340EDC04F114040C
:104BC000C4F1200220FA04F001FA02F340EA0300E3
:104BD00021FA04F345EA030130BDC4F10C04C4F129
:104BE000200220FA02F001FA04F340EA0300294609
:104BF00030BD21FA04F0294630BD94F0000F83F453
:104C0000801306BF81F480110134013D4EE77FEA35
:104C1000645C18BF7FEA655C29D094EA050F08BF81
:104C200090EA020F05D054EA000C04BF1946104662
:104C300030BD91EA030F1EBF0021002030BD5FEAA6
:104C4000545C05D14000494128BF41F0004130BDCE
:104C500014F580043CBF01F5801130BD01F0004522
:104C600045F0FE4141F470014FF0000030BD7FEA95
:104C7000645C1ABF194610467FEA655C1CBF0B4690
:104C8000024650EA013406BF52EA033591EA030FA7
:104C900041F4002130BD00BF90F0000F04BF00219F
:104CA000704730B54FF4806404F132044FF00005D2
:104CB0004FF0000150E700BF90F0000F04BF00214B
:104CC000704730B54FF4806404F1320410F00045B1
:104CD00048BF40424FF000013EE700BF42004FEAAC
:104CE000E2014FEA31014FEA02701FBF12F07F4329
:104CF00093F07F4F81F06051704732F07F4208BFE0
:104D0000704793F07F4F04BF41F40021704730B5E6
:104D10004FF4607401F0004521F000411CE700BF32
:104D200050EA010208BF704730B54FF000050AE0B5
:104D300050EA010208BF704730B511F0004502D5B6
:104D4000404261EB41014FF4806404F132045FEAB8
:104D5000915C3FF4D8AE4FF003025FEADC0C18BF61
:104D600003325FEADC0C18BF033202EBDC02C2F153
:104D7000200300FA03FC20FA02F001FA03FE40EAE5
:104D80000E0021FA02F11444BDE600BF4FF0FF3CD3
:104D900006E000BF4FF0010C02E000BF4FF0010C35
:104DA0004DF804CD4FEA410C7FEA6C5C4FEA430CAE
:104DB00018BF7FEA6C5C1BD001B050EA410C0CBFFD
:104DC00052EA430C91EA030F02BF90EA020F00205F
:104DD000704710F1000F91EA030F58BF994208BFC6
:104DE00090422CBFD8176FEAE37040F00100704783
:104DF0004FEA410C7FEA6C5C02D150EA013C07D1DA
:104E00004FEA430C7FEA6C5CD6D152EA033CD3D024
:104E10005DF8040B704700BF8446104662468C461E
:104E20001946634600E000BF01B5FFF7B7FF002851
:104E300048BF10F1000F01BD4DF808EDFFF7F4FF7A
:104E40000CBF012000205DF808FB00BF4DF808ED05
:104E5000FFF7EAFF34BF012000205DF808FB00BF28
:104E60004DF808EDFFF7E0FF94BF012000205DF84A
:104E700008FB00BF4DF808EDFFF7CEFF94BF0120FF
:104E800000205DF808FB00BF4DF808EDFFF7C4FFF8
:104E900034BF012000205DF808FB00BF4FEA410C41
:104EA0007FEA6C5C02D150EA013C0AD14FEA430C24
:104EB0007FEA6C5C02D152EA033C02D14FF0000061
:104EC00070474FF0010070474A0011D212F50012EE
:104ED00011D20DD56FF47873B3EB62520ED44FEA52
:104EE000C12343F0004343EA505323FA02F07047D2
:104EF0004FF00000704750EA013002D14FF0FF3010
:104F000070474FF0000070474FEA4102B2F1E043B2
:104F100024BFB3F5001CDCF1FE5C0DD901F0004CA0
:104F20004FEAC0024CEA5070B2F1004F40EB8300F0
:104F300008BF20F00100704711F0804F21D113F11C
:104F40003872BCBF01F00040704741F480114FEA55
:104F50005252C2F11802C2F1200C10FA0CF320FADE
:104F600002F018BF40F001004FEAC1234FEAD323FB
:104F700003FA0CFC40EA0C0023FA02F34FEA430365
:104F8000CCE77FEA625307D150EA01331EBF4FF0EE
:104F9000FE4040F44000704701F0004040F0FE4009
:104FA00040F40000704700BF53B94AB9002908BF58
:104FB00000281CBF4FF0FF314FF0FF3000F070B9F8
:104FC000ADF1080C6DE904CE00F006F8DDF804E060
:104FD000DDE9022304B070472DE9F047089E0D4635
:104FE00004460F46002B4AD18A42944665D9B2FA4C
:104FF00082F343B102FA03FCC3F120029F4020FA7E
:1050000002F217439C404FEA1C4E1FFA8CF5B7FB87
:10501000FEF1220C0EFB117742EA074201FB05F07C
:1050200090420AD91CEB020201F1FF3780F01B818C
:10503000904240F2188102396244121AA4B2B2FBC3
:10504000FEF00EFB102244EA024400FB05F5A542E7
:105050000AD91CEB040400F1FF3280F00681A5425E
:1050600040F203816444023840EA0140641B00219D
:105070001EB1DC400023C6E90043BDE8F0878B4247
:1050800008D9002E00F0EC800021C6E90005084692
:10509000BDE8F087B3FA83F1002949D1AB4202D3CE
:1050A000824200F2F780841A65EB03020120174662
:1050B000002EE2D0C6E90047DFE702B9FFDEB2FA10
:1050C00082F3002B40F08F808A1A4FEA1C471FFAA8
:1050D0008CFE0121B2FBF7F507FB1520220C42EAFA
:1050E00000420EFB05F0904208D91CEB020205F1CC
:1050F000FF3802D2904200F2CA804546121AA4B28A
:10510000B2FBF7F007FB102244EA02440EFB00FE5C
:10511000A64508D91CEB040400F1FF3202D2A645D3
:1051200000F2BA801046A4EB0E0440EA05409FE767
:10513000C1F120078B4022FA07FC4CEA030C05FA68
:1051400001F420FA07F3FD40234300FA01F94FEA86
:105150001C401FFA8CFEB5FBF0F81C0C00FB185528
:1051600044EA054408FB0EF5A54202FA01F20BD908
:105170001CEB040408F1FF3A80F08780A54240F25E
:105180008480A8F102086444641B9DB2B4FBF0F370
:1051900000FB134445EA044403FB0EFEA64508D970
:1051A0001CEB040403F1FF306BD2A64569D9023B26
:1051B000644443EA0840A0FB0283A4EB0E049C4233
:1051C000C6461D4655D352D056B1B9EB0E0364EB1B
:1051D000050404FA07F7CB40CC401F43C6E900742E
:1051E0000021BDE8F087C3F1200102FA03FC20FA98
:1051F00001F225FA01F19D402A434FEA1C471FFAAC
:105200008CFEB1FBF7F007FB1015110C41EA0541CC
:1052100000FB0EF58D4204FA03F408D91CEB0101E2
:1052200000F1FF382FD28D422DD902386144491B3D
:1052300092B2B1FBF7F507FB151142EA014205FBFB
:105240000EF1914208D91CEB020205F1FF3816D28B
:10525000914214D9023D6244521A45EA004139E7AD
:105260003146304609E73946E7E61046FCE6C145D7
:10527000AAD2B8EB020E63EB0C050138A4E7454651
:10528000EAE7034695E74046D1E7D0467CE7023D92
:10529000624433E708460BE76444023843E700BF43
:1052A000704700BF024B0146186800F00BB800BF02
:1052B000F0A5FF1F024B0146186802F03DBB00BF7E
:1052C000F0A5FF1F2DE9F04F01F10B06162E83B05C
:1052D000044624D8102900F2BA8000F0A3FA102660
:1052E00018220220B54F3A44A2F1080153688B42BC
:1052F00000F0BA805A68D96822F003021A449D6807
:10530000E9608D60516841F001012046516003F170
:10531000080500F08DFA284603B0BDE8F08F36F09E
:10532000070600F19480B14200F2918000F07AFA11
:10533000B6F5FC7FC0F09A81730A00F08F80042BD1
:1053400000F26F81B30903F1390003F1380CC30097
:105350009A4F3B44A3F108055B689D4206D10CE0DF
:10536000002980F22781DB689D4206D05A6822F02E
:105370000302911B0F29F3DD60463D69DFF840C24F
:1053800065457CD06A6822F00302931B0F2B00F363
:105390007B81002BC7E904CC80F26C81B2F5007FE1
:1053A00080F01A81D308796801334FEA521E012236
:1053B00002FA0EF20A4357F833E0C5F808E007EBAB
:1053C000C3010839E9607A6047F83350CEF80C50D1
:1053D000831001219940914257D8114206D120F003
:1053E00003004900114200F10400FAD007EBC009A4
:1053F0004D468646D5F80C80454508D11DE1002B69
:1054000080F22481D8F80C80454500F01681D8F848
:10541000042022F00302931B0F2BF0DD2046D8E975
:10542000025408EB060146F00106C8F80460EC607F
:10543000A56043F00104C7E90411C1E902CC4C6046
:1054400048F8023000F0F4F908F1080502E00C23F6
:1054500023600025284603B0BDE8F08F4FF40073A9
:1054600040204FF03F0C73E7D3689A4208BF0230E8
:105470007FF440AF3D69DFF848C1654582D17A6865
:105480008310012199409142A7D9BD686B6823F030
:1054900003094E4503D8A9EB06030F2B7ADCDFF88E
:1054A00024B1494BDBF800201B680132334405EB83
:1054B000090A00F0338103F580530F3323F47F682A
:1054C00028F00F084146204601F038FF411C0246F3
:1054D00000F0F380824500F2EE803C4B19684144B5
:1054E0001960084600F04E81DBF80010019301318D
:1054F0001BBFA2EB0A010918CBF80020196012F0BB
:10550000070B00F01781CBF108010A44CBF580515D
:1055100090440831A1EB0801C1F30B0A5146204623
:10552000009201F00BFF421CDDE9002300F04F81E7
:10553000801A00EB0A081968BA6048F0010051446B
:10554000BD425060196000F02981B9F10F0F40F29F
:1055500027816868A9F10C0C2CF0070C00F0010001
:1055600040EA0C0068604FF0050E05EB0C00BCF142
:105570000F0FC0E901EE00F2328150681546144B5E
:105580001A688A4238BF1960124B1A688A4238BFBB
:10559000196094E0AA1943F0010346F001066E6019
:1055A0002046BA60536000F043F90835284603B03E
:1055B000BDE8F08FD9681A44A1E600BF489FFF1FDD
:1055C000509FFF1F50A3FF1F70ABFF1F40ABFF1F7B
:1055D00068ABFF1F6CABFF1FB2F5206F4FEA522381
:1055E00063D3142B00F2B78003F15C01C9005B3375
:1055F00007EB010E7958AEF1080E8E4500F0918050
:105600004B6823F00303934202D989688E45F7D192
:10561000D1F80CE07A68C5E9021ECEF80850CD60DA
:10562000D6E6142B59D9542B00F29D80330B03F18D
:105630006F0003F16E0CC3008AE60EF1010E1EF03E
:10564000030F05F108057FF4D5AE51E0424445460D
:105650005368D8F80C1043F00103536055F8083F25
:105660002046D9608B6000F0E3F8F3E6F00806F11D
:10567000080237E62A442046536843F0010353608A
:10568000083500F0D5F8E5E6A919204646F00106F0
:1056900043F001046E60C7E90411C1E902CC4C601B
:1056A000AB5000F0C5F80835D4E6930903F1390191
:1056B000C90038339CE7BD425FD0BD68686820F000
:1056C00003084645A8EB060302D80F2B3FF762AF4D
:1056D000204600F0ADF80025BCE603F15C0003F1C4
:1056E0005B0CC30034E659F808394B4540F096800E
:1056F00010F0030F00F1FF30F5D17B6823EA0103BE
:105700007B60490099423FF6C0AE19B9BDE6490039
:105710000EF1040E1942FAD0704667E603F1100844
:10572000D0E69A104FF001087B6808FA02F21A439B
:105730007A6070E702EB08014942C1F30B0A514657
:105740002046009201F0FAFD431CDDE900237FF4BE
:10575000EFAEDA46EFE6542B25D8130B03F16F01B9
:10576000C9006E3344E7B3F5AA7F25D8F30B03F1E4
:10577000780003F1770CC300EAE5294B1868404430
:105780001860B1E6CAF30B0CBCF1000F7FF4ACAEAD
:10579000BD68C84448F001006860F0E61546EEE6D2
:1057A0000123536094E7B3F5AA7F23D8D30B03F109
:1057B0007801C90077331BE740F25452934223D853
:1057C000B30C03F17D0003F17C0CC300C0E5ABF129
:1057D000080BD844A8EB02084FF0000AABE605F12D
:1057E00008012046009302F0A7F8BD68009B686896
:1057F0001968C4E640F254518B420BD8930C03F164
:105800007D01C9007C33F3E64FF47E737F204FF0B7
:105810007E0C9DE54FF47E717E23E9E67B6870E7A0
:1058200040ABFF1F014801F0DFBD00BFB8ACFF1F58
:10583000014801F0DBBD00BFB8ACFF1F10B4044C41
:1058400003460A46206810BC194600F003B800BFA2
:10585000F0A5FF1F2DE9F84F1746002900F09880AA
:105860000C4607F10B058046FFF7DCFF162D54F8B8
:10587000041C5BD810252A46AF425CD821F00306F1
:105880009642A4F1080962DABC4BD3F808C009EBD0
:105890000600844500F09780D0F804C02CF0010386
:1058A00003445B68DB0768D42CF0030C06EB0C03A5
:1058B000934247DACB0710D454F8083CA9EB030A0B
:1058C000DAF8043023F003018C44B444944580F2A8
:1058D00011817318934280F2E88039464046FFF701
:1058E000F1FC0746E0B154F8043C23F001034B44BB
:1058F000A0F10802934200F0D280321F242A00F265
:10590000F580132A00F2AC80034622461168196024
:105910005168596092689A602146404602F00CF83E
:105920004046FFF785FF3846BDE8F88F25F00705AC
:10593000002D2A46A0DA0C23C8F80030002738468C
:10594000BDE8F88F1E46D0E90223D3609A60731B2E
:105950000F2B22D8D9F8043003F0010333434E440F
:10596000C9F80430736843F001037360404627466A
:10597000FFF75EFF3846BDE8F88FC907ADD454F88D
:10598000083CA9EB030ADAF8041021F00301A0E7B0
:10599000BDE8F84F1146FFF795BCD9F8042009EB94
:1059A000050102F001024E4443F001032A43C9F805
:1059B00004204B60736843F0010308317360404674
:1059C00001F0BAFFD2E7DCF8040020F0030B06EB8D
:1059D0000B0C05F1100084454DDAC9073FF57DAF8A
:1059E00054F8081CA9EB010ADAF8041021F00301AD
:1059F0008B44B34458453FF76CAF5746DAF80C1068
:105A000057F8080F321F242AC160886000F2DB803B
:105A1000132A40F2D6802168CAF808106168CAF8D3
:105A20000C101B2A00F2DF8008340AF110022168F2
:105A3000116061685160A16891600AEB0501ABEBF0
:105A4000050242F0010299604A60DAF8043003F07E
:105A500001032B434046CAF80430FFF7E9FE6EE726
:105A600023680360636843601B2A68D804F1080256
:105A700000F108034AE709EB05029A60ACEB050365
:105A800043F00103536054F8043C03F001032B433B
:105A9000404644F8043CFFF7CBFE27464FE750F85A
:105AA000043C23F003031E4451E75746DAF80C1078
:105AB00057F8080F321F242AC16088604CD8132A77
:105AC00048D92168CAF808106168CAF80C101B2A66
:105AD00056D808340AF110021E4623681360636822
