:1000000000800020BD010000112E0000CD2D000059
:10001000CD2D0000CD2D0000CD2D0000CD2D0000F8
:10002000CD2D0000CD2D0000CD2D0000112E0000A3
:10003000112E0000CD2D0000294000002D400000B1
:10004000112E0000112E0000112E0000112E0000B4
:10005000112E0000112E0000112E0000112E0000A4
:10006000112E0000112E0000112E0000112E000094
:10007000112E0000112E0000112E0000112E000084
:10008000112E0000112E0000112E0000112E000074
:10009000112E0000112E0000112E0000112E000064
:1000A0006D48000079480000112E0000112E00005C
:1000B000112E0000112E0000112E0000112E000044
:1000C000112E0000112E0000112E0000112E000034
:1000D000112E0000112E0000112E0000112E000024
:1000E000112E0000112E0000112E0000112E000014
:1000F000112E0000112E0000112E0000112E000004
:10010000112E0000112E0000112E0000112E0000F3
:10011000112E0000112E0000112E0000112E0000E3
:10012000112E0000112E0000112E0000112E0000D3
:10013000112E0000112E0000112E0000112E0000C3
:10014000112E0000112E0000112E0000112E0000B3
:10015000112E0000112E0000112E0000112E0000A3
:10016000112E000059330000112E0000112E000046
:10017000112E0000112E0000112E0000112E000083
:10018000112E0000112E0000112E0000112E000073
:10019000112E0000112E0000112E0000112E000063
:1001A000112E0000112E0000112E0000112E000053
:1001B000112E0000112E0000112E0000574B4CF2A2
:1001C000205210B5DA814DF62812DA8100BF00BF47
:1001D00002F022FE524B4FF010621A63514A9A63AA
:1001E000514ADA63514A136913F4807303D153619E
:1001F0004FF4A85313614E4B9A78110703D59A78A0
:1002000042F008029A704B4B4B482A221A704B4B13
:10021000DA1C121AC11E22F00302994288BF002282
:10022000474902F0FFFC474B4748DA1C121AC11E2F
:1002300022F00302994288BF0022002106F0A8FEA6
:10024000424943484FF4DE7202F0ECFC414B424A13
:10025000802103F8011B9342FBD14FF0E0233C4A7D
:10026000C3F8082D3D4B8A221A70A3F5805324222F
:100270005A70A0221A709A799207FCD59A79D406FE
:10028000FCD4374B9A7902F00C02082AFAD10522E5
:100290001A7143225A719A799006FCD5304A9379A3
:1002A0005906FCD51E4B4FF08171596405219964A4
:1002B00020211170917901F00C010C29FAD1294A01
:1002C0005A604FF0E023284A5A6100229A610722BF
:1002D0001A61264AC3F8202D62B602F0CDFE134BF8
:1002E0005B69DA0705D5224802F0BAFE214B224AA3
:1002F000DA61224B1B785B0609D51E4C1E4BE26966
:100300009A4204D11A4802F0ABFE0023E36102F0E6
:1003100089FD06F079FF02F07DFCFEE70020054034
:1003200000800440823F04000100002B00D0034005
:1003300000D0074000E00740209BFF1FF8A5FF1FEB
:1003400044A801004CAEFF1FF8A5FF1F00000000ED
:100350000096FF1F00E400E05FE400E0005006406C
:1003600000400640C01005003F1901000000202099
:10037000A203C46900E00340A5C3945A00F00740FB
:10038000FFFFFFFFFFFFFFFFFFFFFFFFFFFFFFFF7D
:10039000FFFFFFFFFFFFFFFFFFFFFFFFFFFFFFFF6D
:1003A000FFFFFFFFFFFFFFFFFFFFFFFFFFFFFFFF5D
:1003B000FFFFFFFFFFFFFFFFFFFFFFFFFFFFFFFF4D
:1003C000FFFFFFFFFFFFFFFFFFFFFFFFFFFFFFFF3D
:1003D000FFFFFFFFFFFFFFFFFFFFFFFFFFFFFFFF2D
:1003E000FFFFFFFFFFFFFFFFFFFFFFFFFFFFFFFF1D
:1003F000FFFFFFFFFFFFFFFFFFFFFFFFFFFFFFFF0D
:10040000FFFFFFFFFFFFFFFFFFFFFFFFDEF9FFFF23
:100410000548064B1B1AD90F01EBA301491002D066
:10042000034B03B118477047F8A5FF1FF8A5FF1F3E
:100430000000000008B5054B1BB105490548AFF3A6
:100440000080BDE80840FFF7E3BF00BF00000000E8
:10045000F8A5FF1F3CA8010070B5214802F04EFA34
:100460001F4802F03BFA08B31E491F4B0A681B687D
:100470001360938B1D4823F020031B046FF00304CB
:100480001B0C9383D4600123194C03700A79531118
:1004900003F1382380339B00012102F01F0201FA8F
:1004A00002F21A60134B2279DA7770BD0C48104CB7
:1004B00002F040FA104B114A1B680A4915680A6895
:1004C00003EBC0131E1D2E6013600D4A0D4BB2F8D6
:1004D00000C01B68226800FB0C331360D6E700BF26
:1004E000D4A9FF1FF8A9FF1F14A6FF1F34A6FF1FE2
:1004F000E0A9FF1F0080004020A6FF1FF0A9FF1FFA
:100500002AA6FF1F24A6FF1F90F8A83003B9704742
:10051000C289038A416910B5D20803FB02F204467E
:10052000881802F07FFB002384F8A83010BD00BFBC
:100530002DE9F04F85B0013B0546039191460093AC
:100540004FF0000A009B13F801BF0093BBF1000FAE
:1005500068D0D5F8AC20D5F88810137803980978BE
:1005600013FB0AF303441EB2F1429BB2019354D42D
:10057000EB899E4251DA5378002B4ED006F00707E4
:10058000C7F108034FEAE6084C46029321E0EB89E5
:100590006969DB0804FB0383CA5C42EA0E02CA54A1
:1005A000EB899C450EDA029A9040019ADB085207CB
:1005B00004FB038318BF6A6903F101031EBFD15C0A
:1005C0000843D054D5F8AC20537801344B449C42B6
:1005D00023DAA4EB0901002CC9B25846F4DB2B8ABC
:1005E000A3421ADD02F0ECF97342C0B2002E06F10C
:1005F000080C40FA07FE00FA03F3C8DAEA896969D1
:10060000D20804FB02F20134885C03438B54D5F812
:10061000AC2053784B449C42DBDB0AF1010ABAF16F
:100620000A0F8FD105B0BDE8F08F00BF69B170B57A
:10063000054608460C4606F083FF2B680246214615
:1006400028465B68BDE87040184770472DE9F047C1
:10065000022982B001F1FF3328D0224AD45CA4F1F0
:1006600006084E30C5B2CFB24FF0000A4FF00C0969
:10067000E6B268468DF806508DF805708DF8046076
:10068000ADF800A08DF8029001F064FE6A4601F01A
:100690009FFD9DF80330012B04F1FF3402D0444547
:1006A000E6DA1F26304602B0BDE8F08782070DD19A
:1006B0000D4C0E4A04FB002204F18044013CB4EBD3
:1006C000B20F03D24FF017081D24CAE7064C074AA1
:1006D00004FB0022064CB4EB321FBED34FF01708C8
:1006E0001D24BEE728000100295C8FC250B81E05FA
:1006F0000AD7A30010B5174C6179A079CB1E072B40
:1007000010D80B1F052B09D9032900F2B27014D0A1
:100710000A21FFF79BFF2379834207D201230E4A68
:10072000137010BD0C4A0023137010BDFAD8A378C3
:10073000022B8CBF00230123F1E7FFF787FF23790A
:100740008342EFD3EAD8A378012B94BF002301237F
:10075000E5E700BFB0A9FF1F2B9CFF1F10B50121CB
:1007600004460A4803F0C0FA092C05DD2146084872
:10077000BDE8104002F024BA302003F039FB2146D6
:100780000348BDE8104002F01BBA00BF88FC00001F
:10079000149DFF1F70B5A14CA14D8EB003F072FAED
:1007A000002816DD03F032FAC0B20D28A0F12003B4
:1007B000F4D00A2811D05E2BF0D823781E2B03F139
:1007C000010200F28280E854227003F05BFA0028F4
:1007D000E8DC002420460EB070BD9049904D0C78A6
:1007E00000262E55002CF5D009AA08AB03920293DF
:1007F00007AA06AB0192009304AA0E7005AB8949C3
:10080000284606F0D7FA062876D1049BA3F5FA62AB
:10081000632A4FD8059A511E0B294BD80699481EBA
:100820001E2847D80798172844D8089D3B2D41D843
:10083000099C3B2C3ED84E338DF82A000AA88DF82F
:100840002E308DF82D208DF829508DF828408DF808
:100850002C1001F07FFD0CAC224606460D4601F03F
:10086000B7FC9DF83630049A03F2B273934218D164
:100870009DF83520059B9A4213D19DF83420069BA4
:100880009A420ED19DF83220079B9A4209D19DF8D9
:100890003120089B9A4204D19DF83020099B9A424E
:1008A00045D01521604803F01FFA604802F090F926
:1008B00000248FE718215E4803F016FA5B4802F027
:1008C00087F9002420460EB070BD0023237004E099
:1008D00003F09CF9C0B20A2803D003F0D3F9002832
:1008E000F6DC0E21534803F0FFF9504802F070F98E
:1008F000002420460EB070BD0B214F4803F0F4F9E0
:10090000284606F01DFE0146284603F0EDF90121B8
:100910004A4803F0E9F9454802F05AF931214848BC
:1009200003F0E2F9414802F053F9344652E794E803
:1009300003000A900B0C0AA8ADF82C108DF82E308D
:1009400001F0ECFE0446002846D03046294601F06E
:10095000CDFD3C493548FFF769FE0499334802F064
:100960002FF939493148FFF761FE059B092B50DD0E
:1009700005992E4802F024F933492C48FFF756FE1A
:10098000069B092B40DD0699284802F019F92F49EA
:100990002648FFF74BFE079B092B30DD07992348BC
:1009A00002F00EF92A492148FFF740FE089B092B67
:1009B00020DD08991D4802F003F925491B48FFF77F
:1009C00035FE099B092B10DD0999184802F0F8F84B
:1009D000164802F0FDF8FDE61E491448172203F000
:1009E000C5F8124802F0F4F8F4E61B490F48FFF787
:1009F0001DFEE9E718490D48FFF718FED9E716492B
:100A00000A48FFF713FEC9E713490848FFF70EFE2F
:100A1000B9E711490548FFF709FEA9E77CA9FF1FBF
:100A200080A9FF1F8CFC0000BCFC0000149DFF1F70
:100A3000A0FC00004CFD000008FD000014FD0000BB
:100A400018FD0000D4FC0000E4FC0000ECFC0000F9
:100A500088FC0000F0FC0000E8FC0000F0B57C4DD4
:100A60007C4C2B7891B04BB923687B4A0293029B54
:100A700012689B1AB3F5FA6F80F0C28003F002F996
:100A8000002840F0BA802368744A039303991368DE
:100A9000CB1AB3F57A7F01D211B0F0BD704C116062
:100AA000E389228A6F4D6069DB0803FB02F20021B3
:100AB00006F06EFA284601F00FFE0028ECD0FFF792
:100AC00019FE00230A22A9786748684F02F098F8B7
:100AD0006878FFF743FE2878FFF740FE012164485D
:100AE00003F002F900230A2229795F4802F088F80E
:100AF0000121604803F0F8F800230A2269795A4876
:100B000002F07EF801215B4803F0EEF8A97956481F
:100B100001F2B27102F054F80521574803F0E4F8ED
:100B20003978514802F04CF80621544803F0DCF8BB
:100B30000023E9784C480A2202F062F84A4802F0A1
:100B400047F8AE783B781E44F6B2172E77D8A6F158
:100B500008030B2B88BF334673D8494A494BF5210C
:100B6000116001221A7033466A7800921021464AB9
:100B70000DEB010006F0DAF86B7900932B79434A0C
:100B800010210CA806F0D2F8EB780093404A3B788D
:100B9000102108A806F0CAF8092E42D8042001F056
:100BA00021FF0122C4F8AC0084F894202C4804AB47
:100BB00000220321FFF7BCFC002001F013FF0123FA
:100BC0000F2284F89430C4F8AC000CAB2448062102
:100BD000FFF7AEFC224808AB1B220021FFF7A8FC60
:100BE00094F8A830002BFBD1012384F8A83094F8A6
:100BF000A830002BFBD111B0F0BDFFF7CBFD42E7D1
:100C00002221244803F070F8174801F0E1FF1C216D
:100C1000214803F069F8144801F0DAFF01232B7032
:100C20002CE7052001F0DEFE0121C4F8AC0004AB86
:100C30000B4884F894100022FFF77AFCBCE70023ED
:100C40001E460F490F4AFE200860012111708BE7F4
:100C5000ACA9FF1F04AAFF1FA8A9FF1FA0A9FF1F7F
:100C6000C4A7FF1FB0A9FF1F149DFF1F2B9CFF1FD0
:100C7000ECFC0000A0FD0000A4FD0000ACFD0000A5
:100C800030A6FF1F35A6FF1FB4FD0000BCFD00000D
:100C9000C4FD00005CFD000080FD0000F0B5214BAC
:100CA000214C1B78B4FBF3F460110A3080B224119C
:100CB0000A3880B20F22002140FA02F307339BB2B8
:100CC000013ABC2B2CBFC918BC31531CF4D18C4247
:100CD000EED3164A164BD2F800C01D68DFF854E078
:100CE00000210CF10204C1F10F0240FA02F205FBEF
:100CF00002F38EFB03761E440732DB17C3EBE613C9
:100D000092B20733BB2A9BB204D8C2F1BC0213448F
:100D10009BB2BC2224F821202CF82130013110296B
:100D2000E1D1F0BD299CFF1F80A8120118A6FF1F6A
:100D300030A6FF1F818080802DE9F04F85B0002311
:100D40000393354801F0C2FD8046002840F07082D0
:100D5000039B0133DBB2062B039300F06C822F4B15
:100D60001C78002C00F072822D4D2E4B2A481B68F7
:100D700003EB840233F82490568801F0B5FD2A4B2A
:100D80002A4AD3F800C01268C7B202EBC712002388
:100D90000CF10200A2F80490D68030F823105180A4
:100DA0003CF8231022F8081B0133102BF2D1204805
:100DB0000668BFF35B8F16F0010600F09B821D48AA
:100DC0000668BFF35B8F16F0010600F08182C02237
:100DD0000021194806F0DCF81848C022002106F06E
:100DE000D7F82B68D3F800A0BAF1000F40F04F827B
:100DF0005246564655465446534651461048DFF82B
:100E000044A00088DFF8409007FB00F080080290C3
:100E10000E480068019027E0D4A9FF1FC0A7FF1F5C
:100E200010A6FF1F1CA6FF1F18A6FF1F20A6FF1F4E
:100E3000FCA6FF1F38A6FF1F00A7FF1F3CA6FF1F31
:100E40002AA6FF1F06A7FF1F42A6FF1F24A6FF1FFB
:100E50003AF8061C3AF8043C3AF8024C39F8065CB9
:100E600039F8046C39F8022C06F0010001F0010792
:100E7000C6F3001C47EA8007C1F3001040EA8C006B
:100E8000C1F3002EC6F3002CC6F3003B4EEA8C0ED5
:100E9000C1F3003C4CEA8B0C04F0010B47EA0B1742
:100EA00004F0100B40EA0B00C4F3002B4EEA0B1EBB
:100EB000C4F3003B4CEA0B1C02F0010B47EA4B1752
:100EC000C2F3001B40EA4B10C2F3002B4EEA4B1E4C
:100ED000C2F3003B4CEA4B1C05F0010B47EA8B17B1
:100EE000C5F3001B40EA8B1BC5F300204EEA801EB1
:100EF000C5F300304CEA801003F0010C47EACC1C2B
:100F0000C3F300174BEAC71BC3F300274EEAC7170A
:100F1000C3F3003E40EACE1EC1F340004CEA002C71
:100F2000C1F340104BEA0020C1F3402B47EA0B2BE2
:100F3000C1F340374EEA072EC6F340074CEA872735
:100F4000C6F3401C40EA8C2CC6F340204BEA802BB1
:100F5000C6F340304EEA8020C4F3400E47EA0E3E0E
:100F6000C4F340174CEA073CC4F340274BEA073769
:100F7000C4F3403B40EA0B3BC2F340004EEA403E24
:100F8000C2F340104CEA4030C2F3402C47EA4C3CDC
:100F900002F400574BEA070BC5F340074EEA8737C8
:100FA000C5F3401E40EA8E3EC5F340204CEA803C2B
:100FB000C5F340304BEA8030C3F3400B47EACB3BEC
:100FC000C3F340174EEAC73EC3F340274CEAC73786
:100FD000C3F3403C40EACC3CC1F380004BEA004BF9
:100FE000C1F380104EEA0040C1F3802E47EA0E4E56
:100FF000C1F380374CEA074CC6F380074BEA8747BA
:10100000C6F3801B40EA8B4BC6F380204EEA804E2D
:10101000C6F380304CEA8040C4F3800C47EA0C5C95
:10102000C4F380174BEA075BC4F380274EEA0757E7
:10103000C4F3803E40EA0E5EC2F380004CEA405C9E
:10104000C2F380104BEA4050C2F3802B47EA4B5B5F
:10105000C2F380374EEA475EC5F380074CEA8757F4
:10106000C5F3801C40EA8C5CC5F380204BEA805BB2
:10107000C5F380304EEA8050C3F3800E47EACE5E5F
:10108000C3F380174CEAC75CC3F380274BEAC7570A
:10109000C3F3803B40EACB5BC1F3C0004EEA006E75
:1010A000C1F3C0104CEA006CC1F3C02047EA0060F5
:1010B000C6F3C0074EEA8767C90BC6F3C01E4BEAEA
:1010C00001614CEA8E6CC6F3C02EF60B41EA8666CF
:1010D000A849097840EA8E60DDF808E008FB01F1D4
:1010E0000EEB9101C4F3C00E47EA0E7EC4F3C017A5
:1010F0004CEA077CC4F3C02740EA0770E40BC2F354
:10110000C01746EA04744CEA477CC2F3C006C2F337
:10111000C027D20B4EEA467644EA427EC5F3C004AD
:1011200046EA8474DE0844EAC674019E46F821400B
:1011300006EB810140EA477744F00234C5F3C01062
:101140004CEA80700C61DC0940EAC470C5F3C0222F
:101150004860ED0B40F0023047EA82724EEA857536
:101160004861D80ADB0B42EAC07245EAC37508F150
:1011700001088A60CD6042F0023245F00235B8F1D4
:10118000200F0AF1060A09F106098A61CD617FF490
:101190005FAE7948794D01F0BDFB794A1378013390
:1011A000DBB20F2B89BF764B137000221A702B789D
:1011B000002B3FF4C6AD734B1B78092B00F2AC80BB
:1011C000714C6D48714F0126266001F0B3FB704AE7
:1011D000704B1188704A1B6812683F6803EBC0139C
:1011E00000FB01216D4A6E481268006803F1040C8F
:1011F000C7F800C013600160938B6A4F23F080032F
:101200001B041B0C9383938B3E709BB24FF0040C1A
:1012100043F02003002009219383C2F80CC02870FA
:101220005548216001F052FB804600283FF490AD04
:1012300005B0BDE8F08F534B1B78092B77D8504B86
:10124000CDF80C801C78002C7FF48EAD564F574D96
:101250003B78002B7CD12B681E68554C76B12378E7
:10126000304623B13368474ADB68117898473368C2
:1012700030461B6898477668002EF0D14D4E337883
:1012800000272770002B5FD13D4B1C786DE5A6B27F
:1012900010342346484DDFF8249154469A4623687B
:1012A00020465B682A4631469847236820465B689B
:1012B0004A46514698476468002CF0D129886B88CB
:1012C000AC88B9F80260B9F80050B9F8042095E587
:1012D00001F0D2FD00283FF47AAD384B03F1C00293
:1012E0001E805E809E8006339A42F9D1344801F018
:1012F000C9FD6CE501F0C0FD00283FF460AD2E4B48
:1013000003F1C0021E805E809E8006339A42F9D1AE
:101310002C4801F0B7FD52E51A4A254C013B1370E9
:10132000FFF7BCFC284A01231370237048E7154AD5
:101330001F4C013B1370FFF7B1FC234ACDF80C8022
:101340000123137023700AE5FFF7A8FC37709BE7B1
:101350002B681C685CB11D4E3178204601F0ECFA18
:101360006468002CF8D12B681E683C7075E73C70EF
:101370000F4C83E72CA6FF1FD4A9FF1F34A6FF1F25
:10138000C0A7FF1F299CFF1F00900340F0A9FF1F6B
:101390002AA6FF1F20A6FF1F24A6FF1FF8A9FF1FD4
:1013A000E0A9FF1F29A6FF1F2A9CFF1F10A6FF1FF1
:1013B000289CFF1F35A6FF1F00A7FF1F3CA6FF1F8D
:1013C00038A6FF1FFCA6FF1F28A6FF1F2EA6FF1F83
:1013D0002DE9F04F01218BB00D2001F0C5FE5C4BD3
:1013E0005C4C1D685C4EDFF8748140F2EE2702F021
:1013F00081FD2378002B00F082843378DB0740F1F5
:101400007E84534B1B68D8F800209B1A0E2B40F2A9
:101410007684534A1368002B00F085841A465B6873
:10142000002BFBD14F4B059353604F4B4F4819781E
:1014300001F046FA00224E4B186802F00103DB006F
:1014400000EB8201960748BF43F0100355074B801D
:1014500044BF43F002034B8012F0080F1CBF43F05F
:1014600004034B809400DB43013203F01E03102A77
:101470000353E0D100230393FFF710FC01230493EF
:101480003A4801F023FA8246002840F07C82039B10
:101490000133DBB2062B039300F04A84354B1C78F2
:1014A000002C00F05484344D314B30481B6803EB62
:1014B000840233F82480578801F016FA2F4BC6B205
:1014C00018682F4B1B68002203EBC61300F1020CB7
:1014D000A3F80480DF803CF82210598030F82210F5
:1014E00023F8081B0132102AF2D126480368BFF303
:1014F0005B8FDA0740F1648423480368BFF35B8F96
:10150000DB0740F14884C0220021204805F040FD5F
:101510001F48C022002105F03BFD2B68D3F8009046
:10152000B9F1000F40F0618448464C464B464946AD
:101530004D464A46174FDFF860903F680197174FB6
:10154000DFF85C803F8807FB06F6B608029635E0B8
:1015500004AAFF1FE4AAFF1F08ABFF1F0CABFF1F6D
:10156000A4A9FF1FC4A7FF1F2DA6FF1FD4A9FF1FFB
:101570001CA6FF1FC0A7FF1F10A6FF1F18A6FF1F56
:1015800020A6FF1FFCA6FF1F38A6FF1F00A7FF1FF6
:101590003CA6FF1F24A6FF1F06A7FF1F2AA6FF1FAA
:1015A00042A6FF1F39F8062C39F8045C39F8021CF2
:1015B00038F8063C38F8044C38F8020C04F0010600
:1015C00002F00107C4F3001C47EA8607C2F30016C5
:1015D00046EA8C06C2F3002EC4F3002CC4F3003B91
:1015E0004EEA8C0EC2F3003C4CEA8B0C01F0010B6E
:1015F00047EA0B1701F0100B46EA0B06C1F3002B6C
:101600004EEA0B1EC1F3003B4CEA0B1C00F0010B31
:1016100047EA4B17C0F3001B46EA4B16C0F3002BFA
:101620004EEA4B1EC0F3003B4CEA4B1C03F0010B8F
:1016300047EA8B17C3F3001B46EA8B1BC3F3002654
:101640004EEA861EC3F300364CEA861605F0010CFE
:1016500047EACC1CC5F300174BEAC71BC5F30027AC
:101660004EEAC717C5F3003E46EACE1EC2F3400657
:101670004CEA062CC2F340164BEA0626C2F3402B76
:1016800047EA0B2BC2F340374EEA072EC4F340075C
:101690004CEA8727C4F3401C46EA8C2CC4F340264E
:1016A0004BEA862BC4F340364EEA8626C1F3400E41
:1016B00047EA0E3EC1F340174CEA073CC1F340270E
:1016C0004BEA0737C1F3403B46EA0B3BC0F3400609
:1016D0004EEA463EC0F340164CEA4636C0F3402C74
:1016E00047EA4C3C00F400574BEA070BC3F34007B2
:1016F0004EEA8737C3F3401E46EA8E3EC3F34026C8
:101700004CEA863CC3F340364BEA8636C5F3400BC1
:1017100047EACB3BC5F340174EEAC73EC5F3402727
:101720004CEAC737C5F3403C46EACC3CC2F38006DE
:101730004BEA064BC2F380164EEA0646C2F3802EF1
:1017400047EA0E4EC2F380374CEA074CC4F38007D9
:101750004BEA8747C4F3801B46EA8B4BC4F38026D1
:101760004EEA864EC4F380364CEA8646C1F3800CBE
:1017700047EA0C5CC1F380174BEA075BC1F3802793
:101780004EEA0757C1F3803E46EA0E5EC0F380067C
:101790004CEA465CC0F380164BEA4656C0F3802BF9
:1017A00047EA4B5BC0F380374EEA475EC3F38007DE
:1017B0004CEA8757C3F3801C46EA8C5CC3F380264F
:1017C0004BEA865BC3F380364EEA8656C5F3800E3D
:1017D00047EACE5EC5F380174CEAC75CC5F38027A5
:1017E0004BEAC757C5F3803B46EACB5BC2F3C00662
:1017F0004EEA066EC2F3C0164CEA066CC2F3C0266F
:1018000047EA0666C4F3C0074EEA8767D20BC4F303
:10181000C01E4BEA02624CEA8E6CC4F3C02EE40B8D
:1018200042EA8464C54A127846EA8E66DDF808E02A
:101830000AFB02F20EEB9202C1F3C00E47EA0E7EE3
:10184000C1F3C0174CEA077CC1F3C02746EA07760C
:10185000C90BC0F3C01744EA01714CEA477CC0F3DE
:10186000C004C0F3C0274EEA447446EA4777C00B71
:10187000C3F3C00641EA407044EA8676C3F3C02150
:10188000C3F3C014DB0B40EA8373E80846EAC07672
:1018900001984CEA847440F8226000EB8202E80967
:1018A00044EAC07447EA8171E80AED0B41EAC0716D
:1018B00043EAC5730AF1010A46F0023654609160AA
:1018C00044F0023441F00231D360BAF1200F43F00A
:1018D000023309F1060908F10608166154619161A5
:1018E000D3617FF45FAE9648964C01F013F8964AA8
:1018F00013780133DBB20F2B89BF934B1370002297
:101900001A702378002B3FF4BBAD904B1B78092B4A
:1019100000F293828E4D8A488E4F01262E6001F090
:1019200009F88D4B8D4A19888D4B12681B683F68EA
:1019300003EBC01300FB01218A488B4A0068019029
:101940001268DDF804C0181DCCF80000136039607F
:10195000938B7B4823F080031B041B0C9383938B96
:101960009BB243F0200393834FF0000323707F4B1F
:101970001E700423D36009232B6000F0A7FF82466A
:1019800000283FF484AD01210E2001F0EDFB012180
:10199000062001F0E9FB0121022001F0E5FB012115
:1019A000152001F0E1FB0121052001F0DDFB012103
:1019B000072001F0D9FB0121142001F0D5FB012102
:1019C000092001F0D1FB01210A2001F0CDFB01210A
:1019D000162001F0C9FB5E4E654FDFF89881DFF8F5
:1019E00084B1DFF89491DFF880A10121172001F084
:1019F000BBFB00245549346074600A785F4BB3FB2D
:101A0000F2F25211B260072232610A78B3FBF2F3AC
:101A10005B11B3615A4B1A6B4FF451710A431A634D
:101A200059631A6B574942F480321A63CB68564A9D
:101A300043F4003343F48073CB60136C43F0020330
:101A40001364D36B43F00203D3633B6843F080031A
:101A50003B604046214600F0F7FF4248214600F037
:101A6000F3FF4148214600F0EFFF3A48214600F0DD
:101A7000EBFFD8F80030DFF814C1454AC3F800C0C6
:101A80005A6098F804209BF80410C3F8089002F1FB
:101A9000804209020125082002F504324FF6FC7E3F
:101AA000DFF8F090C3F8109041F02001DD82D8609B
:101AB000DD8398619983A3F814E0B1231470137047
:101AC000274BDBF80020D3F80090A2F814E00421A3
:101AD000DAF80030906109EB010E2F48C2F800E0FF
:101AE0009160C2F810C0D160D5825060D5839483D4
:101AF0002A4AC3F800905860D1469960D9601A61AB
:101B00009AF80420DFF84CA0DD829AF80410DD83F7
:101B1000090241F02001998302F180424FF6F071F1
:101B2000998202F5043220219961B4231470137054
:101B30000A4B1B481A68DAF8003033E02CA6FF1F66
:101B4000D4A9FF1F34A6FF1FC0A7FF1F299CFF1F9A
:101B500000900340E0A9FF1F2AA6FF1F24A6FF1F35
:101B600020A6FF1FF0A9FF1FF8A9FF1F29A6FF1F2E
:101B700000800040E8A9FF1F082000C080A81201D3
:101B80000090044000C004400080044078A9FF1F7A
:101B9000FCFF020288F00F40020001011890034090
:101BA000C0F00F40DFF8B8E21A60102218615A60E6
:101BB000DA82DA8302229A839A8B9AF80410A9486F
:101BC000C3F808E06FEA42426FEA524292B29A8347
:101BD0004A1102F13822403201F1100C920001F05A
:101BE0001F01DC609C829C6105FA01F19E4B40F86C
:101BF0002C30116099F80430DFF870C203F16043B3
:101C000003F56443FE221A7099F80420531103F17E
:101C10003823403302F110019B0002F01F0205FA45
:101C200002F240F821C01A6098F80430FB769BF865
:101C30000430FB7699F80430FB769AF80430FB7692
:101C400005988B4FC389028ADB0803FB02F2092344
:101C50003360884B064621461D704069F5233B6082
:101C600005F096F9052000F0BDFE0A22C6F8AC008A
:101C7000814B824886F894502146FEF759FC324643
:101C800092F8A830002BFBD1059A012382F8A830E6
:101C9000784A13707A4B1B6807930799F5233B60CA
:101CA00041F28732764B1B680893089B5B1A93427C
:101CB000F8D90021122001F057FA0021132001F079
:101CC00053FA704B704840F203221A605A6000F0D9
:101CD00037FC00F02DFC022815BF6C486C481B2116
:101CE0001B2102F001F86B4800F072FF644B1A6888
:101CF0000992694B099A1A600BB0BDE8F08F604BEE
:101D00001B6822785B1B3AB1B3F5FA6F3FF681ABE3
:101D100002F0F0F8FFF76BBBBB42F9D95F4A1368DA
:101D2000002B7FF47BAB554B05931360FFF77DBB16
:101D3000049B002B7BD15A4B1B78092B00F2D380DC
:101D4000049B0393574B1C78002C7FF4ACAB564F8D
:101D5000564D3B78002B40F0B7802B681C68544EE2
:101D600074B13378204623B123684D4ADB6811787B
:101D70009847236820461B6898476468002CF0D178
:101D80004FF0000333703B4B1B78002B60D1454B69
:101D90001C78FFF789BB01F06FF800283FF4B3AB64
:101DA000444B03F1C0024FF0000119805980998023
:101DB00006339A42F7D1404801F064F8FFF7A3BB1D
:101DC00001F05AF800283FF497AB3C4B03F1C002F6
:101DD0004FF0000119805980998006339A42F7D15B
:101DE000374801F04FF8FFF787BBA5B21034234600
:101DF000DFF8C8802F4F4C469946236820465B6821
:101E0000424629469847236820465B683A46494639
:101E100098476468002CF0D1B8F80020B8F8025058
:101E2000B8F804103B887C88B888FFF783BBCDF8EE
:101E30000CA0CDF810A0FFF731BB194A1C4E013B96
:101E40001370FEF72BFF1F4A01231370337061E5F7
:101E5000FEF724FF074B4FF000021A7097E700BF10
:101E60004004F0BF0096FF1F59040000390D000028
:101E700030A6FF1F35A6FF1FD0FD0000C4A7FF1F1F
:101E800004AAFF1F00A0044069280000D8FD00003C
:101E9000F4FD0000149DFF1FA8A9FF1FA4A9FF1FA8
:101EA000299CFF1FC0A7FF1F2A9CFF1F10A6FF1F12
:101EB000289CFF1F3CA6FF1F38A6FF1F00A7FF1F7F
:101EC000FCA6FF1F28A6FF1F2B681E68CEB10E4C74
:101ED0002178304600F030FD7668002EF8D12B686E
:101EE0001C683E703BE7094A094E013B1370FEF740
:101EF000D5FE084A012313703370049B0393FFF748
:101F0000CDBA3E70024E3BE72EA6FF1F299CFF1F55
:101F1000289CFF1F28A6FF1F8446007A10B50328BF
:101F20003DD8DFE800F00802312ABCF80A00401A68
:101F30000138114682B2BCF80EE0BCF81040DCF863
:101F400014004FEADE0E0EFB04000EFB020001F04F
:101F5000070EC1F3CF018022405C42FA0EF210401E
:101F600000D110BD9CF818201A709CF819205A70E6
:101F70009CF81A209A70012010BDBCF80C00801A41
:101F800001380A4681B2D6E7BCF80A00401ABCF80C
:101F90000C108A1A0138013A81B292B2CBE70020C4
:101FA00010BD00BF2DE9F04390F8956083B0002389
:101FB00005460F461446ADF804308DF80630FEB9DC
:101FC00043890DF10408C3B1B1B243463A462846ED
:101FD0000136FFF7A1FF58B19DF804109DF80530B8
:101FE0009DF8062009021B02120221806380A28054
:101FF0006B89B34204F10604E6DC03B0BDE8F0836C
:102000004289002AF9D0DFF848901E460DF10408F5
:10201000B1B243463A4628460136FFF77DFF70B11C
:102020009DF805209DF806309DF8041039F812201F
:1020300039F8133039F8111021806280A3806B8940
:10204000B34204F10604E3DC03B0BDE8F08300BF53
:1020500028FE00002DE9F04390F8956083B000233E
:1020600005460F461446ADF804308DF80630E6B943
:1020700043890DF10408ABB1B1B243463A46284654
:102080000136FFF749FF40B19DF804109DF8052087
:102090009DF8063021706270A3706B89B34204F121
:1020A0000304E9DC03B0BDE8F0834289002AF9D0DB
:1020B000DFF844901E460DF10408B1B243463A469B
:1020C00028460136FFF728FF70B19DF805209DF8DE
:1020D00006309DF8041019F8122019F8133039F859
:1020E000111021706270A3706B89B34204F1030474
:1020F000E3DC03B0BDE8F08328FE0000224823495A
:10210000234B244A30B4244D0560244C042008702D
:102110002021234821704FF4806404802148224C00
:1021200004605981214899814FF6FF71198399768E
:102130001F49026002F5107008601E491E4C02F52E
:1021400020704FF0BC15C2F88052086002F5007292
:102150001A48226000210122194C18601948D976CA
:10216000C3F88800C3F88C201748C3F89020C3F840
:102170009440164AC3F8841030BC83F8A810C3F802
:10218000AC005A61704700BF10A6FF1F2DA6FF1FAD
:10219000C4A7FF1F0082FF1FA4A9FF1F2CA6FF1FBB
:1021A0002AA6FF1F24A6FF1F8484FF1F20A6FF1F4F
:1021B00018A6FF1F14A6FF1F1CA6FF1F18FE000075
:1021C00000010104100D01004006010074A8FF1F6A
:1021D00058492DE9F043A1FB00435B09A1FB0341F2
:1021E000C3EB03144909A0EB8400534C1070C1EBFE
:1021F0000115A4FB014CA3EB85034FEA1C1C537093
:102200004E4B4F4E4F4FDFF840810CF10400A3FBC3
:1022100000430CEB4C04A1EBC4019170C11A03EB19
:1022200051039B08C3EBC303C01A431C0020D370A7
:10223000014640F26D190DE0B7EBB40F46D3B8EB91
:10224000341F34BF4C464FF4B77421448C4500F121
:1022500001000FD35FFA80FE0EF2B27313F0030594
:1022600006FB03F4E8D040F26D1421448C4500F1E4
:102270000100EFD2354E82F806E0A6FB030677098F
:10228000A5B36420F60900FB17374FF4C87000FBB4
:10229000163640F26D10ACEB010CDFF8B4E0604490
:1022A000012100230AE013F80E40844234D80C299F
:1022B000A0EB040012D001310133C9B2012B5FFA47
:1022C00083FCF0D12DB9EFB11D2403E04FF4B774B6
:1022D000BBE71C24A04229D3001BECE74FF00D0CF8
:1022E000013082F805C01071BDE8F083642000FB66
:1022F0001737F6094FF4C87000FB16363FB14FF49C
:10230000B770C8E7002E14BF1C241D24E2E7002E7E
:10231000BFD14FF4B770BEE70CF1010C5FFA8CFC33
:10232000013082F805C01071BDE8F0834FF0020C57
:10233000D6E700BF89888888ABAAAAAA2549922433
:10234000295C8FC2285C8F020AD7A3001F85EB513E
:1023500034000100F0B5334A8479864604FB02F26A
:10236000C4B13148314D324E04F2B27C40F2B37305
:102370000CE09F0709D1B5EBB10F02D3B6EB311FCB
:1023800003D302F5A83202F5C07201339C4500FB6D
:1023900003F1EED19EF8050001282CDD254E2649DB
:1023A000264D04F2B274A6FB04367709642303FBBE
:1023B0001747F6094FF4C87303FB164604F00304ED
:1023C000012308E091F800C00133834205FB0C2291
:1023D00001F101010FD0022BF4D1002CF2D10FB981
:1023E000002EEFD1013302F51812834202F56E522E
:1023F00001F10101EFD19EF801309EF80210C3EB0C
:1024000003134FF46164980004FB01009EF804304C
:102410009EF8004009492044013B01FB03001044A1
:102420000021F0BD8033E101295C8FC2285C8F025E
:102430000AD7A3001F85EB51340001008051010031
:10244000F0B5234D234E2B683268234F83B00093A1
:10245000009B9B1AB3F57A7F37D3396801312C681A
:102460000094009B02F57A729B1AB3F57A7F0846B6
:1024700001F10101F3D2326038600094174C2368F7
:10248000834211D8164B1B6873B1984701430ED095
:102490002B680193134B019A1B683260034423603D
:1024A000114B386002221A70002103B0F0BD0E49B2
:1024B0000C4A0B7838681268003B18BF01230244AD
:1024C0000B700021226003B0F0BD3868D6E700BF72
:1024D00004AAFF1FB8A9FF1FC4A9FF1FBCA9FF1FA3
:1024E000C8A9FF1F2C9CFF1FC0A9FF1F10B40A4BD7
:1024F0000A491B680A4A0B4C1268206083B00344E7
:102500000B60094B019202211970019A074B1A6066
:1025100003B010BC704700BF2C9CFF1FBCA9FF1F5D
:1025200004AAFF1FC4A9FF1FC0A9FF1FB8A9FF1F4E
:1025300008B5FFF785FF014B187808BDC0A9FF1F3C
:10254000034A0449044B126808601A60FFF778BF19
:10255000C4A9FF1FC8A9FF1FBCA9FF1F38B5594A4E
:10256000594C01231370682107220546204602F0CA
:1025700085F894F8612094F86030D11A062940F368
:102580008F809A4240F29B80E2180133127E84F8D9
:102590006030C2F30213D04303EB830302F00F0257
:1025A00002EB4302C0F3C0102A7094F8603094F834
:1025B00061209A4240F281805A1C234484F86020B2
:1025C0001B7E1A0902EB820203F00F0303EB4203A6
:1025D000DBB26B7094F8603094F861209A426AD94B
:1025E0005A1C234484F860201B7EC3F3011202EBC3
:1025F000820203F00F0303EB4203AB7094F86030E8
:1026000094F861209A4254D95A1C234484F86020DB
:102610001B7E1A0902EB820203F00F0303EB420355
:10262000DBB2EB7094F8603094F861209A423ED9A6
:102630005A1C234484F860201B7E1A0902EB820294
:1026400003F00F0303EB4203DBB22B7194F860300D
:1026500094F861209A4228D95A1C234484F86020B7
:102660001B7E1A0902EB820203F00F0303EB420305
:10267000DBB26B7194F8603094F861209A4211D902
:102680005A1C234484F860201A7E02F00F031209BA
:102690001E3302EB820203EB4203DBB2AB7138BDA7
:1026A000002038BDC323AB71F9E7A523E1E7A523DB
:1026B000CBE7A523B5E72D239FE7A52389E755227F
:1026C000002071E7CCA9FF1FD09DFF1F014801F03A
:1026D0000DBE00BFD09DFF1F70B50E4C0125D0234D
:1026E00000210646204684F8633084F8AE5084F812
:1026F000AD5001F06BFD2946204601F049FF18B1AD
:10270000054B0020187070BD3046BDE87040FFF7E3
:1027100025BF00BFD09DFF1FCCA9FF1F2DE9F041B1
:102720004E4C4F4D0646012700214FF0D008204661
:1027300084F8638084F8AE7084F8AD7001F046FDD3
:102740008021204601F042FD7178A5FB0123DB08C2
:1027500003EB8302A1EB420101EB0311C9B2204656
:1027600001F034FDB178A5FB0123DB0803EB830204
:10277000A1EB420101EB0311C9B2204601F026FD95
:10278000F178A5FB0123DB0803EB8302A1EB4201F7
:1027900001EB0311C9B2204601F018FD3179A5FB08
:1027A0000123DB0803EB8302A1EB420101EB0311E0
:1027B000C9B2204601F00AFD7179A5FB0123DB08AF
:1027C00003EB8302A1EB420101EB0311C9B22046E6
:1027D00001F0FCFCB1791E39C9B2A5FB0123DB086D
:1027E00003EB8302A1EB420101EB0311C9B22046C6
:1027F00001F0ECFC3946204601F0CAFE30B1DFF8AA
:102800006480002088F80000BDE8F08184F86380CF
:10281000DFF8508084F8AE700146204684F8AD7031
:1028200088F8007001F0D2FC3178A5FB0135ED0885
:1028300005EB8503A1EB430101EB0511C9B220466D
:1028400001F0C4FC3946204601F0A2FE0028D8D190
:10285000384688F80000BDE8F08100BFD09DFF1F1A
:10286000CDCCCCCCCCA9FF1F30B5134C012583B007
:10287000D0230021204684F8633084F8AE5084F8D9
:10288000AD5001F0A3FC2946204601F081FE30B195
:1028900000220A4B104611461A7003B030BD68463C
:1028A000FFF75CFE20B16846FFF754FD03B030BD72
:1028B0000020014603B030BDD09DFF1FCCA9FF1FF3
:1028C0000023C0E900138360704700BF826800687E
:1028D000101AB0FA80F04009704700BF8068B0FA63
:1028E00080F04009704700BF4368816802680B446C
:1028F00093FBF2F002FB1030704700BFD0E90013E9
:1029000082680133013A93FBF1FC01FB1C33436005
:102910008260704783680268934202D0013383600B
:1029200070474268013292FBF3F103FB11224260CF
:10293000704700BF4068704711F0FD0F07BF428924
:102940008389828943890172C2810382704700BFF3
:102950008174704730B4194C8A682368002BB7BF64
:1029600000235D001D462360555B85421FFA80FCF5
:1029700010D012D24D88AB421ADA02EB4302591C36
:10298000A9420B4601F1010111D032F8020F604556
:10299000F6D12360184630BC704702EB4302013B7E
:1029A000F7D332F8021D6145F9D12360F2E72560C3
:1029B0004FF0FF33184630BC704700BFD0A9FF1F4F
:1029C00070B556788E4201D8002070BD0D46114674
:1029D0001446FFF7BFFF0028F6DBE36800FB063371
:1029E000585D70BD014B53F820007047200D010069
:1029F00010B5044600F086F8204610BD38B50C4DE1
:102A00000C4C0D482A46214601F0B6FB2A462146C9
:102A10000A4801F0B1FB2A462146094801F0ACFB07
:102A20002A4621460748BDE8384001F0A5BB00BF53
:102A3000249CFF1FF1290000E8A9FF1FF0A9FF1F38
:102A4000F8A9FF1FE0A9FF1F10B472B621B90268F0
:102A500012B103790F2B41D9284C2188002341FA68
:102A600003F212F0010208D00133102BF7D162B645
:102A700000220260037110BC70474FF0010C0CFA89
:102A800003FC41EA0C01218062B61D495FFA83FC18
:102A900080F804C00C6C44F002040C64CC6B44F06D
:102AA0000204CC6303F10073A1F58021822403F5B5
:102AB00090630C605B0181F81AC081F81EC081F838
:102AC00018C081F81FC010BC0360C3E90022C3E92D
:102AD0000222C3E90422C3E906227047074C218879
:102AE00041FA03FC1CF0010FB8D003F1007303F5A9
:102AF0009063B2EB431FB1D162B6BCE700AAFF1FDF
:102B00000080044003790F2B11D8094A937672B6DE
:102B1000084990F804C00B88012202FA0CF223EA5B
:102B200002030B8062B6102200230271036070471B
:102B30000080004000AAFF1F0020704770B5012AE6
:102B40008AB008BF0A22A1B34FF0210E02E05FFA5B
:102B500086FE2946B1FBF2F502FB15145FFA84FCF0
:102B6000092C0CF1300498BF5FFA84FC0EF12804A4
:102B700088BF0CF1370C6C4488BF5FFA8CFC914223
:102B80000EF1FF3604F824CCE1D24BB10EF1FF3E3A
:102B90005FFA8EFE0EF128036B442D2203F8242CDD
:102BA000036801A95B68CEF12202714498470AB01C
:102BB00070BD30228DF825204FF0210EE5E700BFD3
:102BC0000029BABF49422D2300230A22FFF7B6BFCE
:102BD00000B5036883B040F60D22ADF804205B68B1
:102BE000022201A9984703B05DF804FB034B0228B9
:102BF00088BF034618461B685B681847149DFF1F73
:102C000032B9036800B51B685DF804EBC9B2184718
:102C1000FFF794BF08B5FEF7DBFBFDF71FFF01F0E0
:102C200069F9FAE701B441EA000313F003036FD135
:102C3000403A41D351F8043B40F8043B51F8043B7F
:102C400040F8043B51F8043B40F8043B51F8043B86
:102C500040F8043B51F8043B40F8043B51F8043B76
:102C600040F8043B51F8043B40F8043B51F8043B66
:102C700040F8043B51F8043B40F8043B51F8043B56
:102C800040F8043B51F8043B40F8043B51F8043B46
:102C900040F8043B51F8043B40F8043B51F8043B36
:102CA00040F8043B51F8043B40F8043B51F8043B26
:102CB00040F8043B403ABDD2303211D351F8043BC6
:102CC00040F8043B51F8043B40F8043B51F8043B06
:102CD00040F8043B51F8043B40F8043B103AEDD275
:102CE0000C3205D351F8043B40F8043B043AF9D2C6
:102CF00004320AD0D2071CBF11F8013B00F8013B97
:102D000003D30B7803704B78437001BC704700BF4E
:102D10000C2A4AD310F0030311D0C3F10403D21AD2
:102D2000DB071CBF11F8013B00F8013B07D311F88A
:102D3000013B00F8013B11F8013B00F8013B11F0A9
:102D400003033FF475AF30B4043AC91AC3F1040C5D
:102D500051F8044B022B19D0032B0BD0240A51F845
:102D6000043B1D0644EA050440F8044B1C46043AA3
:102D7000F4D216E0240E51F8043B1D0244EA050487
:102D800040F8044B1C46043AF4D20AE0240C51F8F3
:102D9000043B1D0444EA050440F8044B1C46043A75
:102DA000F4D20432B1EB0C0130BC043AA0D3013AA6
:102DB00011F8013B00F8013BF9D20B7803704B7816
:102DC00043708B78837001BC704700BF08B50F4C0F
:102DD000636B58030DD4636B59050FD4636B1A05ED
:102DE00011D4636BDB04F3D500F012F8636B580366
:102DF000F1D500F0B1FA636B5905EFD500F008F892
:102E0000636B1A05EDD500F003F8EAE70080044093
:102E100008B5FFF7DBFF00BF014B10221A80704797
:102E200000200540704700BF094A08B503461068F6
:102E300033B169460344A1F580518B4201D213603E
:102E400008BD04F0DBF90C2303604FF0FF3008BD30
:102E5000309CFF1F002070474FF0FF30704700BFCD
:102E60004FF400534B600020704700BF01207047B3
:102E70004FF0FF30704700BF0078B0FA80F0400993
:102E8000704700BF01230370704700BFFEE7FFFFDC
:102E900001F1FF3C70B56546002401E07046013445
:102EA000B0FBF2FE02FB1E03092B03F130068ABFC2
:102EB0003733F3B2DBB2904205F8013FEED2631C28
:102EC0000022CA54C8187CB162461CF8015F10F891
:102ED00001ED8CF800E0A1EB0C030232013B521A29
:102EE00023449A420570EFDB084670BD704700BF6F
:102EF000212835D8042A33D830B42A4B2A4D53F828
:102F0000223005EBC0021B045468226812F4E06210
:102F100039D0264A2648C2F89C012648C2F8A001AA
:102F20002548C2F8A4012548C2F8A8012448C2F8DF
:102F3000AC0104F14042A2F592207C2811D821482E
:102F400072B6226822F4702222601343C4F3840212
:102F500043F0807340F82210236062B630BC7047A3
:102F60007047A2F594207C2815D9A2F596207C28DC
:102F700013D9A2F598207C2811D9A2F59A227C2A8F
:102F8000ECD81148DCE755F8300080F880224FF487
:102F900080722260BDE70D48D2E70D48D0E70D48AA
:102FA000CEE700BF283601003C3601000096FF1F27
:102FB000F19BFF1FBD9BFF1F899BFF1F559BFF1FA1
:102FC000219BFF1F349CFF1F0C9DFF1F6C9CFF1F4C
:102FD000BC9CFF1FEC9CFF1F1A4B03EBC0035A68FD
:102FE00002F14043A3F592217C2905D9A3F5942150
:102FF0007C2914D8144900E0144910B472B613683F
:10300000134C23F08773C2F3840023F4803343F01E
:103010008073136041F8204062B610BC7047A3F57E
:1030200096217C2909D9A3F598217C2907D9A3F5F4
:103030009A237C2B05D80749DFE70749DDE70749D5
:10304000DBE770473C3601006C9CFF1F349CFF1F80
:10305000ED2E00000C9DFF1FBC9CFF1FEC9CFF1F72
:10306000034B002210215A615A6018605961704761
:1030700000D00340704700BFF0B54FF0E0244FF49C
:1030800000054FF0807CC4F80851C4F808C14FF027
:10309000007CC4F808C11D4A1D481E494FF0806CD1
:1030A000C4F808C12823002748F6FF7609254FF009
:1030B000006CC4F808C183B057609660D360536158
:1030C000D3615362D3625363D36353641560476023
:1030D0008660C360436105604F608E60CB604B616A
:1030E0000D6000F0ABFFFFF7C5FF0B4C23680093AA
:1030F000009B132BFAD900F0E9FC23680193019B94
:10310000B3F5967FF9D303B0F0BD00BF0080034054
:103110000090034000800B4004AAFF1F212816D80E
:1031200010B4104B53F8302092F880422CB1012398
:1031300071B982F8003110BC704703EBC0035B68C3
:103140001A6849B142F0030210BC1A607047704718
:1031500082F8803010BC704722F0020210BC1A6066
:10316000704700BF3C360100212820D81B4A02EBE3
:10317000C00301295B680FD004291DD052F830002C
:10318000002280F8802299B1022922D003290DD192
:103190004FF481721A60704752F830004FF4A272F7
:1031A00080F880121A601A6822F020021A607047B4
:1031B0004FF480721A60704752F830104FF4A272C8
:1031C000012081F880021A601A6842F020021A6019
:1031D000704740F203121A60704700BF3C3601008E
:1031E000431E032B17D872B60C4951F8230080B147
:1031F00010B40B4CB0F800C034F81320A2EB0C0252
:10320000D0F804C041F823C024F8132062B610BCE3
:10321000704762B670470020704700BF98AAFF1F32
:10322000E8AAFF1F013803280BD872B6074B53F8E2
:10323000203043B100205B680130002BFBD162B627
:103240007047002070471846F9E700BFC0AAFF1F6B
:1032500010B472B6194A1A4C042312F8011B09075C
:1032600043F0010C05D554F8331061B154F83C100B
:10327000B9B10433142BF0D162B6124B00221A708C
:1032800010BC00F09BBC0F4904EBC3020830506037
:103290000A780D4844F83300013A0A7062B610BC4F
:1032A0007047084A094904EBCC030830586013788A
:1032B00044F83C10013B137062B6F0E7CC370100D4
:1032C0000080FF1FF0AAFF1F88004000C8004000D8
:1032D000421E032A0ED81C4B400140F0100010B4CF
:1032E000034472B6194CA05C03281CD8DFE800F038
:1032F0001315031870470520A05413F0080F088811
:1033000014BFC8228822083142EA004259601A607C
:1033100062B610BC70470320EEE708330220EBE7EB
:1033200008330420E8E70A4B53F8220038B1094B70
:1033300053F82200416043F8221062B6E9E743F8EF
:103340002210044BF7E700BF0080FF1FE0AAFF1F19
:10335000C0AAFF1FD0AAFF1F2DE9F04FDFF8CCA2B3
:10336000DFF8CCB285B03DE0B24D9E0805EBC60754
:10337000013A796813F00803D4B2A1F1080040F0D3
:10338000B88055F836204FEA124C120C21F808CCC0
:1033900000F0A78021F8063C41F8043CA64B53F806
:1033A0002420002A00F00182A44B53F8242050600E
:1033B00043F82400A24B33F81420944423F814C09B
:1033C00000F0DCFB002800F0E98117F0080F9D4BAE
:1033D00000F1080018BF5B46786045F836300823D6
:1033E0008AF880309AF880305907DCB21BD5964BAA
:1033F0001B78ABB195490A7802F0FF032AB1013B73
:10340000DBB20B70002B00F0468391490A7802F082
:10341000FF032AB1013BDBB20B70002B00F0EB8104
:1034200004238AF8803014F0080200F0CC819AF866
:103430009020D3B2120997D1DFF8F8919B0809EBDD
:10344000C30459F833006468C0F3830009287CD0B2
:103450000FD80138012808D87E4A158842F2210089
:10346000854200F0FB8149F833B001238AF894309B
:10347000B5E70D28F9D1D4E90007774D49F833B005
:10348000744E764CC9F8102083B240F2816CC9F8B2
:1034900018202A6063454FF00102C6E90007227038
:1034A00000F2FF80B3F5D06F80F0CB82B3F5817F5F
:1034B00000F0268240F2DE8040F2023293427BD15D
:1034C00007F07F07042F00F20881020C40F005810D
:1034D000634911F8273043F0020301F827301346FF
:1034E00070E017F0080F574B18BF5B4645F83630B1
:1034F00075E700F063FB5B495B4A51F82430002B11
:1035000000F05781586841F82400115D03F108006C
:103510007860032905D8DFE801F0120F15020421B5
:1035200011551A8817F0080F14BFC823882343EADF
:10353000024345F8363052E702211155F1E70321E5
:103540001155EEE705211155EBE7434D2A683AB3D3
:103550004649424C0F88464894F800E00678402FD0
:103560003B4628BF4023BEF1000F8EF0010E84F8C9
:1035700000E046F0020486F00106067009EBC40084
:10358000426014BFC820882040EA03401A44FB1A56
:103590009BB249F834000B80002B00F036812A6082
:1035A0002C4B1A88B2F5A06F7FF45FAF9A788AF837
:1035B000982000225A7058E7B3F5A06F40F08D8034
:1035C00000221346B6F806C02948944528BF944601
:1035D00067460278402F28BF402742F0020E3E0483
:1035E00009EBCE0846F0C806C8F8043049F83E603A
:1035F00000263B442670BCEB070782F001060670EC
:1036000040F01181BCF13F0F4FF0010509D946F0A0
:103610000206027009EBC60225705360882349F840
:10362000363001238AF894301FE700BF002007409E
:10363000C80040000080FF1F98AAFF1FA8AAFF1F14
:10364000E8AAFF1F88004000E4AAFF1FE5AAFF1FA9
:1036500010ABFF1FB8AAFF1F8CAAFF1F89AAFF1F6C
:10366000C0200740C0AAFF1FE0AAFF1F8AAAFF1FB1
:1036700088AAFF1F802B00F08B81822B2DD107F0B1
:103680007F07042F29D8A74A00231380A64B13F8DD
:1036900027309F0740F1FC8101231370A14B0222C8
:1036A00090E742F2210C6345BBD01DD942F22122A2
:1036B00093420DD1BFB2002F82D19C4B1A689C4B14
:1036C0001A609C4BC0F3074000221870134679E73C
:1036D00042F2213293423FF473AF0F238AF8C03095
:1036E00001238AF89430C0E6B3F5086F00F04A81F0
:1036F000B3F5106FF1D1904BC0F30740042518705B
:1037000059F835301A0606D40135142D0CD059F865
:1037100035301A06F8D509EBC50301355868083865
:1037200000F04CFA142DF2D1844A854B0292854A5E
:103730000192854E854ADFF8188203940092002595
:103740001C4656F8047B2FB138467F6800F036FAE5
:10375000002FF9D1009BD8F8007043F8045B46F8BD
:10376000045C00932FB138467F6800F027FA002FE1
:10377000F9D1029B48F8045B43F8045B0293019B78
:1037800023F8025B01932378023B032B00F20981AB
:10379000DFE813F03F0104013F0104016D4A45F8E1
:1037A000360013780133137019E643F82400674B91
:1037B000FEE5115D022926D07FF611AE03291DD149
:1037C000012313550BE6E0076ED4210621D4A2078E
:1037D00008D5614B93F888200221D2B283F8882063
:1037E00083F88010E30603D55B4B102283F880201A
:1037F00005B0BDE8F08F00F059FB11E617F0080F97
:1038000014BF032302231355E9E53F2F98BF00227D
:10381000C5E6514B80220D2183F8C01083F880202B
:10382000A207DFD5D5E746F002060270402F09EB6C
:10383000C6003A4628BF402243601004134440F0BB
:1038400088000121BA1A49F83600217055D02B6042
:10385000424B1A8001238AF8943006E692885AB9BE
:103860003F4AE51D14F8011B02F8011FAC42F9D1D3
:103870003C4A1268862A3CD03B4C3C48257802786A
:10388000002D85F00105257042F0020482F001024E
:10389000027009EBC4024FF00000506014BFC82250
:1038A000882249F83420DEE52B4B30483049314C32
:1038B000022583F8945002702F480C602F4D486009
:1038C0008C600D24CD60FF200A618A6183F8C040BE
:1038D00001219F2483F8880083F8800083F89820D2
:1038E00083F88C0083F8844083F8941005B0BDE819
:1038F000F08F234A0F201070BEE73F2FA7D890E625
:1039000007F07F07042F3FF6E8AE000C7FF4E5AE2A
:10391000054A12F8273023F0020302F8273000226C
:1039200013464FE690AAFF1FC020074004AAFF1FBE
:103930000CABFF1F08ABFF1FE4AAFF1FD0AAFF1F9D
:10394000E0AAFF1FE8AAFF1F98AAFF1FA8AAFF1F4F
:10395000C0AAFF1FF0AAFF1F002007408AAAFF1F6E
:10396000FFAAFF1F00ABFF1F89AAFF1F88AAFF1F26
:103970000080FF1F8800400008AAFF1F48AAFF1F01
:10398000E5AAFF1F484B49491B780B700B4619E607
:10399000464A00231380454B022213E64FF00103F1
:1039A0002370434BB34204F101047FF4CAAE414E8D
:1039B000039CDFF80481414F00233370042518F87D
:1039C000013B3F4AAB541B0725D445F0020145F0AB
:1039D000030204350023142D49F8313049F8323000
:1039E000EDD1384F25783A7842F0020009EBC00C4F
:1039F00085F00106CCF80430002D4DD1882382F0EB
:103A0000010226703A7049F8303001238AF8943068
:103A10002BE52570C5E700F0B1F8002832D009EB9E
:103A2000C5030830586049F8357000F0A7F808B3AE
:103A300045F0010309EBC3020830506049F833B088
:103A4000C3E7214A5368002B3FF447AE000CBFB2D6
:103A500004E013690C32002B3FF43FAE1188814221
:103A6000F7D15188B942F4D1000A03280CBF1A7863
:103A70001289A7E533780133337045F0010349F823
:103A80003300A2E7337849F8350001333370CCE7CF
:103A9000064B022296E500BE2670C82382F001067E
:103AA0003E7049F83030BCE5E4AAFF1F90AAFF1F22
:103AB000A8AAFF1FF0AAFF1FCC3701008800400012
:103AC000C020074088AAFF1F7837010070B500F0BA
:103AD0001BFB00231A4A194642F8331002EBC300BD
:103AE0000133142B4160F7D1164C174B606B174D07
:103AF00040F480206063C2F3072483F89C40144C98
:103B0000FF204FF0010CC2F30746120E83F8B0609D
:103B10004FF0E02E83F8B42083F8800083F888000B
:103B2000187483F894C0217083F884C0702385F8DA
:103B300049304FF400721023CEF80821237270BD73
:103B40000080FF1F008004400020074000E400E0E8
:103B50000021074000F0ACB800F07CB800F056B887
:103B600000F090B800F076B900F050B90846114660
:103B700000F0BAB8084600F03BB900BF72B60D4974
:103B80000B68B3FA83F00B2810DC4FF00042C24000
:103B900023EA02030B6062B6074A00EBC000C100D3
:103BA00002EBC000002353504360704762B6002010
:103BB000704700BF249DFF1FBC97FF1F0E4BC31A09
:103BC000B3F5587F10D20D4A127872B972B60C4A0A
:103BD0000C49A2FB032308684FF000421B0922FA9C
:103BE00003F303430B6062B67047074A1278002A5A
:103BF000ECD0FFF72DBB00BFBC97FF1FF0AAFF1F43
:103C0000398EE338249DFF1FE4AAFF1F38B50F4CFF
:103C1000206878B143880288C11801339A420D7A2E
:103C200002D94380284638BDFFF7C8FF0023236030
:103C3000284638BD064B1B782BB10320FFF7D0FA7E
:103C400020600028E6D14FF0FF35EBE7F4AAFF1F14
:103C5000E4AAFF1F10B5094C206818B14388184426
:103C6000007A10BD064B1B782BB10320FFF7B8FA82
:103C700020600028F2D14FF0FF3010BDF4AAFF1FE2
:103C8000E4AAFF1F084B094A1B6810B594881BB1B2
:103C90001A885B88D31A1C440CB1204610BD00F072
:103CA00029F9204610BD00BFF4AAFF1FE8AAFF1F94
:103CB0000B4B1B789BB110B50A4C206848B1FFF73D
:103CC0007DFF002303202360FFF78AFA30B1FFF75E
:103CD00075FF0320FFF784FA0028F8D110BD704764
:103CE000E4AAFF1FF4AAFF1F2DE9F04FDFF8EC90C4
:103CF00083B0012289F80020019179B3384FDFF8B1
:103D0000E480019D384EDFF8E4A083463968A1B312
:103D1000B1F802E0CEF1400CAC4528BFAC460EEB4A
:103D20000C040022A4B23270A5EB0C054C8001F10A
:103D30000802BCF1000F0AD00EF1FF3E7244DC44D1
:103D40001BF8014B02F8014FDC45F9D14C883F2CA0
:103D50000BD805228AF80020002DD7D10198002326
:103D600089F8003003B0BDE8F08F40220A800420BB
:103D7000FFF7AEFA00223A60EBE798F800202AB38A
:103D800048F6014408E0013C19D03278BAB900F095
:103D9000B1F898F80020CAB10420FFF743FA0728C9
:103DA000F1D84FF0010389F80030FFF7E7FE014634
:103DB00038600028ACD1013C89F80000E5D101232E
:103DC0004FF0FF30337003B0BDE8F08F00234FF0A9
:103DD000FF3089F8003003B0BDE8F08FF9AAFF1F6B
:103DE000FCAAFF1FE4AAFF1FF8AAFF1F10ABFF1FCA
:103DF00000B583B0034601210DF107008DF80730AF
:103E0000FFF772FF03B05DF804FB00BF38B50E4D3D
:103E10000E4C28680123237028B140880023C0F18C
:103E20004000237038BD0A4B1B7813B90020207066
:103E300038BD0420FFF7F6F90728F7D8FFF79EFEF4
:103E400028600028E9D1F1E7FCAAFF1FF9AAFF1FAB
:103E5000E4AAFF1FF8B5114B1B788BB1104E114D22
:103E6000346801272F7064B10F4B00271F706388DF
:103E7000238021460420FFF72BFA376000232B70A4
:103E8000F8BDFFF77BFE084B014620B104201C70F3
:103E9000FFF71EFAF2E71F70F0E700BFE4AAFF1F6A
:103EA000FCAAFF1FF9AAFF1F10ABFF1F38B50E4B6E
:103EB0001B7853B90D4C216841B103F0FF054B88C5
:103EC0000B800420FFF704FA256038BDFFF756FE8B
:103ED000014620B1BDE838400420FFF7F9B9044B92
:103EE00001221A7038BD00BFF9AAFF1FFCAAFF1FEC
:103EF00010ABFF1F2DE9F843324E337863B1324FD8
:103F00003A784AB90122D9073A7043D49A0726D49D
:103F100000225B073A7001D4BDE8F8832B4B1A6886
:103F2000002AF9D0EFF30582002AF5D1EFF31085CE
:103F300072B6186800283AD0254C2178002936D16D
:103F400042691A6001232370002A37D0916105B9B4
:103F500062B600258368457798472570DCE7DFF86F
:103F6000748098F80020002AD2D00025DFF86890ED
:103F70002B4659F82340236820461B690135984792
:103F800008B12369984798F80020EBB29A42F0D81C
:103F90003378BDE7FFF776FE68B9104B1B780BB995
:103FA0003378B3E7337803F0FE033370AEE7002DC8
:103FB000B2D162B6B0E700F0A5F8EEE7084B1A60A0
:103FC000C5E700BF289DFF1F11ABFF1F14ABFF1FEC
:103FD00020ABFF1F34ABFF1F28ABFF1F743701005E
:103FE00024ABFF1F70B5EFF3108272B60C4C206843
:103FF00080B10C4E00254369236073B19D6102B905
:1040000062B6836845779847EFF3108272B62068EE
:104010000028F0D102B962B670BD3360EFE700BF8F
:104020001CABFF1F18ABFF1FFFF7DCBF024A136872
:1040300001331360704700BF04AAFF1F2A4B2B4AAD
:104040006020E1211870597013782948082B34D06A
:104050000A2B20D00C2B274B0CBF15213D211222FF
:104060008160C2609960DA60234B21491B78214A44
:10407000CBB101230B621362204B1D491B781D4AF3
:10408000012B13D9042B1BD884234B6253621C4B86
:1040900001221A707047174B192113228160C260E8
:1040A0009960DA60E0E70B621362E5E780234B6218
:1040B0005362134B01221A7070470E4B0121ECE73B
:1040C000082B06D885234B6253620D4B01221A70D0
:1040D0007047102B94BF862387234B625362084B93
:1040E00001221A70704700BF00400740299DFF1F42
:1040F00000B0034000B00B4035ABFF1F2A9DFF1FEF
:1041000036ABFF1F704700BF10B584B072B6174AB8
:10411000702441200F2180231470D071917113708D
:1041200013781B06FCD5906862B6114B114C98426F
:1041300038BF00EB800001A938BF40000A22FEF71B
:10414000A7FE01A92046002311F8012B01333AB143
:104150000A2B20F8022FF7D11623237004B010BDCC
:104160005B00DBB2237004B010BD00BF0000024052
:1041700080969800B89DFF1F03460846194602F036
:10418000EBBC00BF90F8612090F86000101A7047F7
:1041900090F8603090F861209A4205D95A1C034487
:1041A00080F86020187E70474FF0FF30704700BFE6
:1041B00090F8603090F861209A4286BFC018007E67
:1041C0004FF0FF30704700BF704700BFB0F8AE300F
:1041D0002BB190F8AD30482B03D901234360002068
:1041E0007047C218013380F8AD30012082F86310A7
:1041F000704700BF38B5B0F8AE40A4B190F8AD300C
:10420000C3F14904A24284BF01224260054698BF1F
:104210001446633018442246FEF704FD95F8AD308D
:10422000234485F8AD30204638BD00BF70B5164C2C
:104230002369DB7813F0200514D094F8B0300133F3
:10424000DBB2012B84F8B03002D894F8AF3043B918
:10425000636994F8B1201344BDE87040187AFEF702
:10426000BBBE70BD636994F8B1201344187AFEF7A1
:10427000B3FED4F8B830002BF3D094F8610084F882
:104280006050BDE8704018478C9EFF1F70B5164CFB
:104290002369DB7813F0200514D094F8B030013393
:1042A000DBB2012B84F8B03002D894F8AF3043B9B8
:1042B000636994F8B1201344BDE87040187AFEF7A2
:1042C0008BBE70BD636994F8B1201344187AFEF771
:1042D00083FED4F8B830002BF3D094F8610084F852
:1042E0006050BDE870401847D09DFF1F4269002311
:1042F000A0F86030C0F8AC3010B4D2E900140A68FD
:10430000C0F8B43022430469C0F8B8300A60A37022
:10431000426990F8B1301849134493F808C05B7BA8
:1043200001EBCC0C1B02DCF8044003F4E06343F027
:104330006403236090F8B23013449C7CDB7D01EB76
:10434000C4011B024C68116803F4E06343F064038A
:10435000236009685368194205D0036928225A70FE
:10436000036903229A71036920225A71036980222A
:104370009A7010BC704700BF3C36010010B503694D
:10438000D978CAB2C906044622D510215006D97080
:104390001DD512F0040250D03D49D4F8B4200023BA
:1043A0000B7084F8AD30002A5BD0904794F8AD30A4
:1043B000002B56D02369D0229A70236994F8632089
:1043C0001A712369012284F8AC200222DA7010BD30
:1043D0005106DED4997811F0100117D12D4A80F8DA
:1043E000B01090424FD02C4A904241D094F86110C6
:1043F0001A794729D2B2E8D8254800780028E4D0B5
:10440000481C214484F861000A76DEE712F00102BC
:1044100020D190F8AC1090F8AD00884281BF4A1CC2
:10442000091984F8AC2091F863201A712369D0220D
:104430009A7023690222DA70C9E7236984F861203F
:10444000C0219970124A2369012111700222187942
:10445000DA70BCE7C0229A7003691A790222DA7016
:10446000B5E70122002384F8AD2084F86330A1E78A
:10447000436990F8B120094913440322187AFEF7E2
:1044800037FD2369B2E7436990F8B1200449F3E7A7
:1044900037ABFF1FD09DFF1F8C9EFF1F2D420000DA
:1044A0008D4200002DE9F047374C0269236882B045
:1044B0000093DDF80080D378990618D5334E054671
:1044C000002102E0D3789B0611D523680193019B5C
:1044D000A3EB08030F2BF5D969B1102BF2D0002004
:1044E00090702B6980229A7002B0BDE8F08701209D
:1044F00002B0BDE8F08795F8B1206B69134405213F
:10450000187AFEF731FE6B6995F8B120134401214A
:1045100093F812A05046FEF727FE09274FF07809BE
:1045200000215046FEF7FAFD4B46013BFDD101212B
:104530005046FEF7F3FD4B46013BFDD1013FEFD165
:10454000696995F8B1300B44F022187A5B7B06EB71
:10455000C0001B02406803F4E06343F0640303609F
:1045600095F8B2300B44997CDB7D06EBC1011B0250
:10457000496803F4E06343F064030B60013AFDD142
:1045800001212A699EE700BF04AAFF1F3C360100F3
:10459000F0B503691222DA700269937813F02006ED
:1045A00085B004460D4652D0B42393703249206939
:1045B0000B680093009E05E00A680192019A921B25
:1045C000042A3DD8C37813F02003F5D094F8AD3019
:1045D0006BB34FF0000CE646022604EB0E0393F893
:1045E000633003710B680293029F206907E0920613
:1045F0000AD50A680392039AD21B052A20D8C378E9
:10460000DAB213F00203F2D0C6702369DA78D7B2B7
:10461000D206184626D4BA0624D5FA0726D494F82A
:10462000AD300CF1010C5FFA8CFE7345D5D800203B
:1046300015B1236980229A70002384F8AE3004E01B
:104640008370236980229A70042005B0F0BDFFF7C3
:1046500029FF28B1236984F8AF60B0229A70A5E7DA
:104660000420F2E780229A700420E1E7BEF1000FF7
:104670000CBF02200320DDE704AAFF1F2DE9F0474D
:104680009046994600220369A0F860201222DA7051
:1046900003699C7814F0200588B007468A4600F02C
:1046A0009F80B4229A70704E3B6932680092009AE3
:1046B00008E030680190019CA4EB020CBCF1040FEF
:1046C00000F28680DC7814F02005F2D04FEA4A022E
:1046D00042F00102D2B21A713368029302983A6929
:1046E00006E0336803930399091A052900F28280D2
:1046F000D47814F00205F4D04FF0020C82F803C015
:104700003B69DC7814F011057CD1B8F1000F00F0A2
:104710008480B8F1010F00F08D80A0229A70396971
:104720000B794FF0A80E33680493049805E03268C3
:104730000592059A121A052A68D8CB7813F002035D
:10474000F5D081F803C03969CB78DCB2DB060846C6
:104750000A4641D4A4063FD508F1FF385FFA88F82D
:10476000B8F1010F04D181F802E0396908460A4620
:10477000472D59D90379B8F1010FD4D13368069385
:10478000069805E0316807910799091A052956D856
:10479000D37813F00203F5D00223D3703A69D378AB
:1047A000D806D9B255D48B0616D5B023472D9370B1
:1047B0004CD83A697C19127922766B1CDDB2B9F1BA
:1047C000000F02D03B6980229A7087F8615003E0A5
:1047D0009D703B6980229A70284608B0BDE8F0873A
:1047E000FFF760FE0028F7D03B6987F8AF50B02292
:1047F0009A7058E795703B69802228469A7008B0F5
:10480000BDE8F08780229A700025E5E78B703B6950
:1048100080229A7087F86150DEE7B9F1000F14BF6B
:104820008022A0229A70D7E77B19007918766C1C39
:10483000E5B2A0E7A8229A703A6913799EE79370CF
:104840003B6980229A7087F86150C5E73B691B7904
:10485000B5E710217823D170013BFDD13A699378F7
:1048600003F0F7039370B7E704AAFF1F0148FFF7AF
:1048700085BD00BFD09DFF1F0148FFF77FBD00BF72
:104880008C9EFF1F81F0004102E000BF83F00043D7
:1048900030B54FEA41044FEA430594EA050F08BFDB
:1048A00090EA020F1FBF54EA000C55EA020C7FEA9F
:1048B000645C7FEA655C00F0E2804FEA5454D4EB1C
:1048C0005555B8BF6D420CDD2C4480EA020281EAE6
:1048D000030382EA000083EA010180EA020281EA1E
:1048E0000303362D88BF30BD11F0004F4FEA013170
:1048F0004FF4801C4CEA113102D0404261EB41017F
:1049000013F0004F4FEA03334CEA133302D0524204
:1049100063EB430394EA050F00F0A780A4F10104C0
:10492000D5F1200E0DDB02FA0EFC22FA05F28018FA
:1049300041F1000103FA0EF2801843FA05F35941E0
:104940000EE0A5F120050EF1200E012A03FA0EFC5F
:1049500028BF4CF0020C43FA05F3C01851EBE37189
:1049600001F0004507D54FF0000EDCF1000C7EEBA6
:1049700000006EEB0101B1F5801F1BD3B1F5001FE4
:104980000CD349085FEA30004FEA3C0C04F1010403
:104990004FEA445212F5800F80F09A80BCF1004F2C
:1049A00008BF5FEA500C50F1000041EB045141EAAE
:1049B000050130BD5FEA4C0C404141EB0101013C77
:1049C00028BFB1F5801FE9D291F0000F04BF014666
:1049D0000020B1FA81F308BF2033A3F10B03B3F138
:1049E00020020CDA0C3208DD02F1140CC2F10C02C8
:1049F00001FA0CF021FA02F10CE002F11402D8BF26
:104A0000C2F1200C01FA02F120FA0CFCDCBF41EAF1
:104A10000C019040E41AA2BF01EB0451294330BDC0
:104A20006FEA04041F3C1CDA0C340EDC04F114049D
:104A3000C4F1200220FA04F001FA02F340EA030074
:104A400021FA04F345EA030130BDC4F10C04C4F1BA
:104A5000200220FA02F001FA04F340EA030029469A
:104A600030BD21FA04F0294630BD94F0000F83F4E4
:104A7000801306BF81F480110134013D4EE77FEAC7
:104A8000645C18BF7FEA655C29D094EA050F08BF13
:104A900090EA020F05D054EA000C04BF19461046F4
:104AA00030BD91EA030F1EBF0021002030BD5FEA38
:104AB000545C05D14000494128BF41F0004130BD60
:104AC00014F580043CBF01F5801130BD01F00045B4
:104AD00045F0FE4141F470014FF0000030BD7FEA27
:104AE000645C1ABF194610467FEA655C1CBF0B4622
:104AF000024650EA013406BF52EA033591EA030F39
:104B000041F4002130BD00BF90F0000F04BF002130
:104B1000704730B54FF4806404F132044FF0000563
:104B20004FF0000150E700BF90F0000F04BF0021DC
:104B3000704730B54FF4806404F1320410F0004542
:104B400048BF40424FF000013EE700BF42004FEA3D
:104B5000E2014FEA31014FEA02701FBF12F07F43BA
:104B600093F07F4F81F06051704732F07F4208BF71
:104B7000704793F07F4F04BF41F40021704730B578
:104B80004FF4607401F0004521F000411CE700BFC4
:104B900050EA010208BF704730B54FF000050AE047
:104BA00050EA010208BF704730B511F0004502D548
:104BB000404261EB41014FF4806404F132045FEA4A
:104BC000915C3FF4D8AE4FF003025FEADC0C18BFF3
:104BD00003325FEADC0C18BF033202EBDC02C2F1E5
:104BE000200300FA03FC20FA02F001FA03FE40EA77
:104BF0000E0021FA02F11444BDE600BF4FF0FF3C65
:104C000006E000BF4FF0010C02E000BF4FF0010CC6
:104C10004DF804CD4FEA410C7FEA6C5C4FEA430C3F
:104C200018BF7FEA6C5C1BD001B050EA410C0CBF8E
:104C300052EA430C91EA030F02BF90EA020F0020F0
:104C4000704710F1000F91EA030F58BF994208BF57
:104C500090422CBFD8176FEAE37040F00100704714
:104C60004FEA410C7FEA6C5C02D150EA013C07D16B
:104C70004FEA430C7FEA6C5CD6D152EA033CD3D0B6
:104C80005DF8040B704700BF8446104662468C46B0
:104C90001946634600E000BF01B5FFF7B7FF0028E3
:104CA00048BF10F1000F01BD4DF808EDFFF7F4FF0C
:104CB0000CBF012000205DF808FB00BF4DF808ED97
:104CC000FFF7EAFF34BF012000205DF808FB00BFBA
:104CD0004DF808EDFFF7E0FF94BF012000205DF8DC
:104CE00008FB00BF4DF808EDFFF7CEFF94BF012091
:104CF00000205DF808FB00BF4DF808EDFFF7C4FF8A
:104D000034BF012000205DF808FB00BF4FEA410CD2
:104D10007FEA6C5C02D150EA013C0AD14FEA430CB5
:104D20007FEA6C5C02D152EA033C02D14FF00000F2
:104D300070474FF0010070474A0011D212F500127F
:104D400011D20DD56FF47873B3EB62520ED44FEAE3
:104D5000C12343F0004343EA505323FA02F0704763
:104D60004FF00000704750EA013002D14FF0FF30A1
:104D700070474FF0000070474FEA4102B2F1E04344
:104D800024BFB3F5001CDCF1FE5C0DD901F0004C32
:104D90004FEAC0024CEA5070B2F1004F40EB830082
:104DA00008BF20F00100704711F0804F21D113F1AE
:104DB0003872BCBF01F00040704741F480114FEAE7
:104DC0005252C2F11802C2F1200C10FA0CF320FA70
:104DD00002F018BF40F001004FEAC1234FEAD3238D
:104DE00003FA0CFC40EA0C0023FA02F34FEA4303F7
:104DF000CCE77FEA625307D150EA01331EBF4FF080
:104E0000FE4040F44000704701F0004040F0FE409A
:104E100040F40000704700BF53B94AB9002908BFE9
:104E200000281CBF4FF0FF314FF0FF3000F070B989
:104E3000ADF1080C6DE904CE00F006F8DDF804E0F1
:104E4000DDE9022304B070472DE9F047089E0D46C6
:104E500004460F46002B4AD18A42944665D9B2FADD
:104E600082F343B102FA03FCC3F120029F4020FA0F
:104E700002F217439C404FEA1C4E1FFA8CF5B7FB19
:104E8000FEF1220C0EFB117742EA074201FB05F00E
:104E900090420AD91CEB020201F1FF3780F01B811E
:104EA000904240F2188102396244121AA4B2B2FB55
:104EB000FEF00EFB102244EA024400FB05F5A54279
:104EC0000AD91CEB040400F1FF3280F00681A542F0
:104ED00040F203816444023840EA0140641B00212F
:104EE0001EB1DC400023C6E90043BDE8F0878B42D9
:104EF00008D9002E00F0EC800021C6E90005084624
:104F0000BDE8F087B3FA83F1002949D1AB4202D35F
:104F1000824200F2F780841A65EB030201201746F3
:104F2000002EE2D0C6E90047DFE702B9FFDEB2FAA1
:104F300082F3002B40F08F808A1A4FEA1C471FFA39
:104F40008CFE0121B2FBF7F507FB1520220C42EA8B
:104F500000420EFB05F0904208D91CEB020205F15D
:104F6000FF3802D2904200F2CA804546121AA4B21B
:104F7000B2FBF7F007FB102244EA02440EFB00FEEE
:104F8000A64508D91CEB040400F1FF3202D2A64565
:104F900000F2BA801046A4EB0E0440EA05409FE7F9
:104FA000C1F120078B4022FA07FC4CEA030C05FAFA
:104FB00001F420FA07F3FD40234300FA01F94FEA18
:104FC0001C401FFA8CFEB5FBF0F81C0C00FB1855BA
:104FD00044EA054408FB0EF5A54202FA01F20BD99A
:104FE0001CEB040408F1FF3A80F08780A54240F2F0
:104FF0008480A8F102086444641B9DB2B4FBF0F302
:1050000000FB134445EA044403FB0EFEA64508D901
:105010001CEB040403F1FF306BD2A64569D9023BB7
:10502000644443EA0840A0FB0283A4EB0E049C42C4
:10503000C6461D4655D352D056B1B9EB0E0364EBAC
:10504000050404FA07F7CB40CC401F43C6E90074BF
:105050000021BDE8F087C3F1200102FA03FC20FA29
:1050600001F225FA01F19D402A434FEA1C471FFA3D
:105070008CFEB1FBF7F007FB1015110C41EA05415E
:1050800000FB0EF58D4204FA03F408D91CEB010174
:1050900000F1FF382FD28D422DD902386144491BCF
:1050A00092B2B1FBF7F507FB151142EA014205FB8D
:1050B0000EF1914208D91CEB020205F1FF3816D21D
:1050C000914214D9023D6244521A45EA004139E73F
:1050D0003146304609E73946E7E61046FCE6C14569
:1050E000AAD2B8EB020E63EB0C050138A4E74546E3
:1050F000EAE7034695E74046D1E7D0467CE7023D24
:10510000624433E708460BE76444023843E700BFD4
:10511000704700BF024B0146186800F00BB800BF93
:10512000F0A5FF1F024B0146186802F025BB00BF27
:10513000F0A5FF1F2DE9F04F01F10B06162E83B0ED
:10514000044624D8102900F2BA8000F0A3FA1026F1
:1051500018220220B54F3A44A2F1080153688B424D
:1051600000F0BA805A68D96822F003021A449D6898
:10517000E9608D60516841F001012046516003F102
:10518000080500F08DFA284603B0BDE8F08F36F030
:10519000070600F19480B14200F2918000F07AFAA3
:1051A000B6F5FC7FC0F09A81730A00F08F80042B63
:1051B00000F26F81B30903F1390003F1380CC30029
:1051C0009A4F3B44A3F108055B689D4206D10CE071
:1051D000002980F22781DB689D4206D05A6822F0C0
:1051E0000302911B0F29F3DD60463D69DFF840C2E1
:1051F00065457CD06A6822F00302931B0F2B00F3F5
:105200007B81002BC7E904CC80F26C81B2F5007F72
:1052100080F01A81D308796801334FEA521E0122C7
:1052200002FA0EF20A4357F833E0C5F808E007EB3C
:10523000C3010839E9607A6047F83350CEF80C5062
:10524000831001219940914257D8114206D120F094
:1052500003004900114200F10400FAD007EBC00935
:105260004D468646D5F80C80454508D11DE1002BFA
:1052700080F22481D8F80C80454500F01681D8F8DA
:10528000042022F00302931B0F2BF0DD2046D8E907
:10529000025408EB060146F00106C8F80460EC6011
:1052A000A56043F00104C7E90411C1E902CC4C60D8
:1052B00048F8023000F0F4F908F1080502E00C2388
:1052C00023600025284603B0BDE8F08F4FF400733B
:1052D00040204FF03F0C73E7D3689A4208BF02307A
:1052E0007FF440AF3D69DFF848C1654582D17A68F7
:1052F0008310012199409142A7D9BD686B6823F0C2
:1053000003094E4503D8A9EB06030F2B7ADCDFF81F
:1053100024B1494BDBF800201B680132334405EB14
:10532000090A00F0338103F580530F3323F47F68BB
:1053300028F00F084146204601F038FF411C024684
:1053400000F0F380824500F2EE803C4B1968414446
:105350001960084600F04E81DBF80010019301311E
:105360001BBFA2EB0A010918CBF80020196012F04C
:10537000070B00F01781CBF108010A44CBF58051EF
:1053800090440831A1EB0801C1F30B0A51462046B5
:10539000009201F00BFF421CDDE9002300F04F8179
:1053A000801A00EB0A081968BA6048F001005144FD
:1053B000BD425060196000F02981B9F10F0F40F231
:1053C00027816868A9F10C0C2CF0070C00F0010093
:1053D00040EA0C0068604FF0050E05EB0C00BCF1D4
:1053E0000F0FC0E901EE00F2328150681546144BF0
:1053F0001A688A4238BF1960124B1A688A4238BF4D
:10540000196094E0AA1943F0010346F001066E60AA
:105410002046BA60536000F043F90835284603B0CF
:10542000BDE8F08FD9681A44A1E600BF489FFF1F6E
:10543000509FFF1F50A3FF1F68ABFF1F38ABFF1F1C
:1054400060ABFF1F64ABFF1FB2F5206F4FEA522322
:1054500063D3142B00F2B78003F15C01C9005B3306
:1054600007EB010E7958AEF1080E8E4500F09180E1
:105470004B6823F00303934202D989688E45F7D124
:10548000D1F80CE07A68C5E9021ECEF80850CD606C
:10549000D6E6142B59D9542B00F29D80330B03F11F
:1054A0006F0003F16E0CC3008AE60EF1010E1EF0D0
:1054B000030F05F108057FF4D5AE51E0424445469F
:1054C0005368D8F80C1043F00103536055F8083FB7
:1054D0002046D9608B6000F0E3F8F3E6F00806F1AF
:1054E000080237E62A442046536843F0010353601C
:1054F000083500F0D5F8E5E6A919204646F0010682
:1055000043F001046E60C7E90411C1E902CC4C60AC
:10551000AB5000F0C5F80835D4E6930903F1390122
:10552000C90038339CE7BD425FD0BD68686820F091
:1055300003084645A8EB060302D80F2B3FF762AFDE
:10554000204600F0ADF80025BCE603F15C0003F155
:105550005B0CC30034E659F808394B4540F096809F
:1055600010F0030F00F1FF30F5D17B6823EA01034F
:105570007B60490099423FF6C0AE19B9BDE64900CB
:105580000EF1040E1942FAD0704667E603F11008D6
:10559000D0E69A104FF001087B6808FA02F21A432D
:1055A0007A6070E702EB08014942C1F30B0A5146E9
:1055B0002046009201F0FAFD431CDDE900237FF450
:1055C000EFAEDA46EFE6542B25D8130B03F16F014B
:1055D000C9006E3344E7B3F5AA7F25D8F30B03F176
:1055E000780003F1770CC300EAE5294B18684044C2
:1055F0001860B1E6CAF30B0CBCF1000F7FF4ACAE3F
:10560000BD68C84448F001006860F0E61546EEE663
:105610000123536094E7B3F5AA7F23D8D30B03F19A
:105620007801C90077331BE740F25452934223D8E4
:10563000B30C03F17D0003F17C0CC300C0E5ABF1BA
:10564000080BD844A8EB02084FF0000AABE605F1BE
:1056500008012046009302F08FF8BD68009B68683F
:105660001968C4E640F254518B420BD8930C03F1F5
:105670007D01C9007C33F3E64FF47E737F204FF049
:105680007E0C9DE54FF47E717E23E9E67B6870E732
:1056900038ABFF1F014801F0DFBD00BFB0ACFF1FFA
:1056A000014801F0DBBD00BFB0ACFF1F10B4044CDB
:1056B00003460A46206810BC194600F003B800BF34
:1056C000F0A5FF1F2DE9F84F1746002900F098803C
:1056D0000C4607F10B058046FFF7DCFF162D54F84A
:1056E000041C5BD810252A46AF425CD821F0030683
:1056F0009642A4F1080962DABC4BD3F808C009EB62
:105700000600844500F09780D0F804C02CF0010317
:1057100003445B68DB0768D42CF0030C06EB0C0336
:10572000934247DACB0710D454F8083CA9EB030A9C
:10573000DAF8043023F003018C44B444944580F239
:1057400011817318934280F2E88039464046FFF792
:10575000F1FC0746E0B154F8043C23F001034B444C
:10576000A0F10802934200F0D280321F242A00F2F6
:10577000F580132A00F2AC800346224611681960B6
:105780005168596092689A602146404601F0F4FFE2
:105790004046FFF785FF3846BDE8F88F25F007053E
:1057A000002D2A46A0DA0C23C8F80030002738461E
:1057B000BDE8F88F1E46D0E90223D3609A60731BC0
:1057C0000F2B22D8D9F8043003F0010333434E44A1
:1057D000C9F80430736843F00103736040462746FC
:1057E000FFF75EFF3846BDE8F88FC907ADD454F81F
:1057F000083CA9EB030ADAF8041021F00301A0E742
:10580000BDE8F84F1146FFF795BCD9F8042009EB25
:10581000050102F001024E4443F001032A43C9F896
:1058200004204B60736843F0010308317360404605
:1058300001F0A2FFD2E7DCF8040020F0030B06EB36
:105840000B0C05F1100084454DDAC9073FF57DAF1B
:1058500054F8081CA9EB010ADAF8041021F003013E
:105860008B44B34458453FF76CAF5746DAF80C10F9
:1058700057F8080F321F242AC160886000F2DB80CD
:10588000132A40F2D6802168CAF808106168CAF865
:105890000C101B2A00F2DF8008340AF11002216884
:1058A000116061685160A16891600AEB0501ABEB82
:1058B000050242F0010299604A60DAF8043003F010
:1058C00001032B434046CAF80430FFF7E9FE6EE7B8
:1058D00023680360636843601B2A68D804F10802E8
:1058E00000F108034AE709EB05029A60ACEB0503F7
:1058F00043F00103536054F8043C03F001032B43CD
:10590000404644F8043CFFF7CBFE27464FE750F8EB
:10591000043C23F003031E4451E75746DAF80C1009
:1059200057F8080F321F242AC16088604CD8132A08
:1059300048D92168CAF808106168CAF80C101B2AF7
:1059400056D808340AF110021E46236813606368B3
:105950005360A3689360D1463C4630E7214601F08E
:105960009BFA11E7D0E902135746CB60996057F8CC
:10597000081FDAF80C30CB60321F242A99602DD82A
:10598000132A29D92368CAF808306368CAF80C308A
:105990001B2A42D808340AF1100322681A60626890
:1059A0005A60A2689A606646D1463C4607E7A368FB
:1059B0008360E368C360242A26D004F1100200F15A
:1059C0001003DBE63A46BFE7214638461E46D1467D
:1059D00001F062FA3C46F2E63B46DEE721463846F5
:1059E0006646D14601F058FA3C46E8E6489FFF1F5C
:1059F000A168CAF81010E168CAF81410242A20D04F
:105A000010340AF118029FE723690361616941615B
:105A100004F1180200F11803B0E6A368CAF81030C8
:105A2000E368CAF81430242A21D010340AF118038C
:105A3000B3E73A4633E72146384601F02DFA164BD4
:105A400033E72269CAF818206269CAF81C201834A2
:105A50000AF1200278E7A168CAF81010E168CAF8D4
:105A60001410242A0DD010340AF1180217E7236904
:105A7000CAF818306369CAF81C3018340AF12003D8
:105A80008BE72269CAF818206269CAF81C2018340A
:105A90000AF1200203E700BF489FFF1FFFFFFFFF3F
:105AA0002DE9F04FA1B08946002107921C910022F8
:105AB0000021CDE90412804649461B910F4611F89A
:105AC000012B2D2A5ED801A050F822F0675C00005F
:105AD000855B0000855B0000855B0000855B000046
